{
  "address": "0x0e6991d3033B7904913177CF866d52c16B7a8C90",
  "abi": [
    {
      "inputs": [],
      "stateMutability": "nonpayable",
      "type": "constructor"
    },
    {
      "inputs": [
        {
          "internalType": "address",
          "name": "target",
          "type": "address"
        }
      ],
      "name": "AddressEmptyCode",
      "type": "error"
    },
    {
      "inputs": [
        {
          "internalType": "address",
          "name": "account",
          "type": "address"
        }
      ],
      "name": "AddressInsufficientBalance",
      "type": "error"
    },
    {
      "inputs": [],
      "name": "AmountVestedLessThanZero",
      "type": "error"
    },
    {
      "inputs": [],
      "name": "DailyVestedAmountLessThanZero",
      "type": "error"
    },
    {
      "inputs": [],
      "name": "DurationLessThanCliff",
      "type": "error"
    },
    {
      "inputs": [],
      "name": "FailedInnerCall",
      "type": "error"
    },
    {
      "inputs": [],
      "name": "InvalidInitialization",
      "type": "error"
    },
    {
      "inputs": [
        {
          "internalType": "string",
          "name": "info",
          "type": "string"
        },
        {
          "internalType": "uint256",
          "name": "noOfYears",
          "type": "uint256"
        }
      ],
      "name": "MustBeLessThanYears",
      "type": "error"
    },
    {
      "inputs": [],
      "name": "NotInitializing",
      "type": "error"
    },
    {
      "inputs": [],
      "name": "OnlyOwner",
      "type": "error"
    },
    {
      "inputs": [],
      "name": "ReentrancyGuardReentrantCall",
      "type": "error"
    },
    {
      "inputs": [
        {
          "internalType": "address",
          "name": "token",
          "type": "address"
        }
      ],
      "name": "SafeERC20FailedOperation",
      "type": "error"
    },
    {
      "anonymous": false,
      "inputs": [
        {
          "indexed": true,
          "internalType": "address",
          "name": "recipient",
          "type": "address"
        },
        {
          "indexed": false,
          "internalType": "uint256",
          "name": "amountClaimed",
          "type": "uint256"
        }
      ],
      "name": "GrantTokensClaimed",
      "type": "event"
    },
    {
      "anonymous": false,
      "inputs": [
        {
          "indexed": false,
          "internalType": "uint64",
          "name": "version",
          "type": "uint64"
        }
      ],
      "name": "Initialized",
      "type": "event"
    },
    {
      "inputs": [],
      "name": "SECONDS_PER_DAY",
      "outputs": [
        {
          "internalType": "uint256",
          "name": "",
          "type": "uint256"
        }
      ],
      "stateMutability": "view",
      "type": "function"
    },
    {
      "inputs": [],
      "name": "_deployer",
      "outputs": [
        {
          "internalType": "address",
          "name": "",
          "type": "address"
        }
      ],
      "stateMutability": "view",
      "type": "function"
    },
    {
      "inputs": [],
      "name": "calculateGrantClaim",
      "outputs": [
        {
          "internalType": "uint256",
          "name": "",
          "type": "uint256"
        },
        {
          "internalType": "uint256",
          "name": "",
          "type": "uint256"
        }
      ],
      "stateMutability": "view",
      "type": "function"
    },
    {
      "inputs": [],
      "name": "claimVestedCoins",
      "outputs": [],
      "stateMutability": "nonpayable",
      "type": "function"
    },
    {
      "inputs": [],
      "name": "grant",
      "outputs": [
        {
          "internalType": "uint256",
          "name": "startTime",
          "type": "uint256"
        },
        {
          "internalType": "uint256",
          "name": "amount",
          "type": "uint256"
        },
        {
          "internalType": "uint256",
          "name": "vestingDuration",
          "type": "uint256"
        },
        {
          "internalType": "uint256",
          "name": "vestingCliff",
          "type": "uint256"
        },
        {
          "internalType": "uint256",
          "name": "daysClaimed",
          "type": "uint256"
        },
        {
          "internalType": "uint256",
          "name": "totalClaimed",
          "type": "uint256"
        }
      ],
      "stateMutability": "view",
      "type": "function"
    },
    {
      "inputs": [
        {
          "internalType": "address",
          "name": "vaultOwner",
          "type": "address"
        },
        {
          "internalType": "uint256",
          "name": "_startTime",
          "type": "uint256"
        },
        {
          "internalType": "uint256",
          "name": "_amount",
          "type": "uint256"
        },
        {
          "internalType": "uint256",
          "name": "_vestingDurationInDays",
          "type": "uint256"
        },
        {
          "internalType": "uint256",
          "name": "_vestingCliffInDays",
          "type": "uint256"
        },
        {
          "internalType": "address",
          "name": "coinOrTokenAddress",
          "type": "address"
        }
      ],
      "name": "initialize",
      "outputs": [],
      "stateMutability": "nonpayable",
      "type": "function"
    },
    {
      "inputs": [],
      "name": "owner",
      "outputs": [
        {
          "internalType": "address",
          "name": "",
          "type": "address"
        }
      ],
      "stateMutability": "view",
      "type": "function"
    },
    {
      "inputs": [
        {
          "internalType": "uint256",
          "name": "amount",
          "type": "uint256"
        }
      ],
      "name": "receiveTokens",
      "outputs": [],
      "stateMutability": "payable",
      "type": "function"
    },
    {
      "inputs": [],
      "name": "tokensVestedPerDay",
      "outputs": [
        {
          "internalType": "uint256",
          "name": "",
          "type": "uint256"
        }
      ],
      "stateMutability": "view",
      "type": "function"
    },
    {
      "inputs": [
        {
          "internalType": "address",
          "name": "newOwner",
          "type": "address"
        }
      ],
      "name": "transferOwnership",
      "outputs": [],
      "stateMutability": "nonpayable",
      "type": "function"
    },
    {
      "stateMutability": "payable",
      "type": "receive"
    }
  ],
  "transactionHash": "0x93b8d895b42b0c85a18cda5eef858cc6cbdda96e54286a89f22bbbc351d0318a",
  "args": [],
  "numDeployments": 1,
  "solcInputHash": "5a07c3b9afeadca7b81d1170c81b28c6",
  "bytecode": "0x6080806040523460d75760016000557ff0c57e16840df040f15088dc2f81fe391c3923bec73e23a9662efc9c229c6a005460ff8160401c1660c6576002600160401b03196001600160401b038216016061575b604051610afb90816100dd8239f35b6001600160401b0319166001600160401b039081177ff0c57e16840df040f15088dc2f81fe391c3923bec73e23a9662efc9c229c6a005581527fc7f505b2f371ae2175ee4913f4499e1f2633a7b5936321eed1cdaeb6115181d290602090a138806052565b63f92ee8a960e01b60005260046000fd5b600080fdfe608080604052600436101561001d575b50361561001b57600080fd5b005b60003560e01c90816330c3eaa814610831575080635df5f96f146103c6578063743e0c9b1461035e57806374f0314f146103405780638da5cb5b146103195780639b3e28fd14610197578063d310556b14610170578063d507ad1914610149578063e7b5fc171461011f5763f2fde38b14610098573861000f565b3461011a57602060031936011261011a576100b1610877565b600154906001600160a01b03821633036100f0576001600160a01b0373ffffffffffffffffffffffffffffffffffffffff199116911617600155600080f35b7f5fc483c50000000000000000000000000000000000000000000000000000000060005260046000fd5b600080fd5b3461011a57600060031936011261011a5760206101416005546006549061088d565b604051908152f35b3461011a57600060031936011261011a5760406101646108ea565b82519182526020820152f35b3461011a57600060031936011261011a5760206001600160a01b0360025416604051908152f35b3461011a57600060031936011261011a576002600054146102ef5760026000556001600160a01b03600154166101cb6108ea565b9081156102c5576101de906008546108d0565b6008556101ed816009546108d0565b6009556003546001600160a01b03168061024f57506000808080848682f1156102435760207fc6cbb4aa8681b18644bf64921eea8f2b9f44cbd58d64fc07a110bfccc2038296915b604051908152a26001600055005b6040513d6000823e3d90fd5b7fc6cbb4aa8681b18644bf64921eea8f2b9f44cbd58d64fc07a110bfccc2038296916102c0602092604051907fa9059cbb0000000000000000000000000000000000000000000000000000000085830152866024830152836044830152604482526102bb6064836108ad565b610967565b610235565b7f4db9f1dc0000000000000000000000000000000000000000000000000000000060005260046000fd5b7f3ee5aeb50000000000000000000000000000000000000000000000000000000060005260046000fd5b3461011a57600060031936011261011a5760206001600160a01b0360015416604051908152f35b3461011a57600060031936011261011a576020604051620151808152f35b602060031936011261011a5761001b6001600160a01b0360035416604051907f23b872dd0000000000000000000000000000000000000000000000000000000060208301523360248301523060448301526004356064830152606482526102bb6084836108ad565b3461011a5760c060031936011261011a576103df610877565b602435604435606435906084359260a4356001600160a01b03811680910361011a577ff0c57e16840df040f15088dc2f81fe391c3923bec73e23a9662efc9c229c6a005460ff8160401c16159667ffffffffffffffff821680159081610829575b600114908161081f575b159081610816575b506107ec57818860017fffffffffffffffffffffffffffffffffffffffffffffffff00000000000000006001600160a01b039516177ff0c57e16840df040f15088dc2f81fe391c3923bec73e23a9662efc9c229c6a0055610797575b503373ffffffffffffffffffffffffffffffffffffffff1960025416176002551673ffffffffffffffffffffffffffffffffffffffff19600154161760015573ffffffffffffffffffffffffffffffffffffffff196003541617600355610e428411610732576123a583116106cd578383106106a3576305f5e10082028281046305f5e100148315171561068d5761054b846305f5e1009261088d565b0415610663578061065e5750425b60405160c0810181811067ffffffffffffffff8211176106485760009160a0916040528381528460208201528560408201528660608201528260808201520152600455600555600655600755600060085560006009556105b557005b7fffffffffffffffffffffffffffffffffffffffffffffff00ffffffffffffffff7ff0c57e16840df040f15088dc2f81fe391c3923bec73e23a9662efc9c229c6a0054167ff0c57e16840df040f15088dc2f81fe391c3923bec73e23a9662efc9c229c6a00557fc7f505b2f371ae2175ee4913f4499e1f2633a7b5936321eed1cdaeb6115181d2602060405160018152a1005b634e487b7160e01b600052604160045260246000fd5b610559565b7f650254780000000000000000000000000000000000000000000000000000000060005260046000fd5b634e487b7160e01b600052601160045260246000fd5b7f236b82390000000000000000000000000000000000000000000000000000000060005260046000fd5b60846040517f57f8d31800000000000000000000000000000000000000000000000000000000815260406004820152600860448201527f4475726174696f6e000000000000000000000000000000000000000000000000606482015260196024820152fd5b60846040517f57f8d31800000000000000000000000000000000000000000000000000000000815260406004820152600560448201527f436c6966660000000000000000000000000000000000000000000000000000006064820152600a6024820152fd5b7fffffffffffffffffffffffffffffffffffffffffffffff0000000000000000001668010000000000000001177ff0c57e16840df040f15088dc2f81fe391c3923bec73e23a9662efc9c229c6a0055886104ae565b7ff92ee8a90000000000000000000000000000000000000000000000000000000060005260046000fd5b90501589610452565b303b15915061044a565b899150610440565b3461011a57600060031936011261011a5760c0906004546005546006546007549060085492600954948652602086015260408501526060840152608083015260a0820152f35b600435906001600160a01b038216820361011a57565b8115610897570490565b634e487b7160e01b600052601260045260246000fd5b90601f601f19910116810190811067ffffffffffffffff82111761064857604052565b9190820180921161068d57565b9190820391821161068d57565b60045480421061095e576109026201518091426108dd565b04906007548210610959576006549182811061092b5750610928600554600954906108dd565b90565b61093b61094491600854906108dd565b9260055461088d565b9182810292818404148115171561068d579190565b600090565b50600090600090565b60006001600160a01b038192169260208151910182855af13d15610a29573d67ffffffffffffffff8111610648576109c291604051916109b16020601f19601f84011601846108ad565b82523d6000602084013e5b83610a35565b8051908115159182610a05575b50506109d85750565b7f5274afe70000000000000000000000000000000000000000000000000000000060005260045260246000fd5b819250906020918101031261011a576020015180159081150361011a5738806109cf565b6109c2906060906109bc565b90610a745750805115610a4a57805190602001fd5b7f1425ea420000000000000000000000000000000000000000000000000000000060005260046000fd5b81511580610abc575b610a85575090565b6001600160a01b03907f9996b315000000000000000000000000000000000000000000000000000000006000521660045260246000fd5b50803b15610a7d56fea26469706673582212206a0ca15bd808fbba019ee4a62f450583b6ec28650c20ff630f0f44cf950f6e4564736f6c634300081c0033",
  "devdoc": {
    "errors": {
      "AddressEmptyCode(address)": [
        {
          "details": "There's no code at `target` (it is not a contract)."
        }
      ],
      "AddressInsufficientBalance(address)": [
        {
          "details": "The ETH balance of the account is not enough to perform the operation."
        }
      ],
      "FailedInnerCall()": [
        {
          "details": "A call to an address target failed. The target may have reverted."
        }
      ],
      "InvalidInitialization()": [
        {
          "details": "The contract is already initialized."
        }
      ],
      "NotInitializing()": [
        {
          "details": "The contract is not initializing."
        }
      ],
      "ReentrancyGuardReentrantCall()": [
        {
          "details": "Unauthorized reentrant call."
        }
      ],
      "SafeERC20FailedOperation(address)": [
        {
          "details": "An operation with an ERC20 token failed."
        }
      ]
    },
    "events": {
      "Initialized(uint64)": {
        "details": "Triggered when the contract has been initialized or reinitialized."
      }
    },
    "kind": "dev",
    "methods": {
      "constructor": {
        "custom:oz-upgrades-unsafe-allow": "constructor"
      }
    },
    "version": 1
  },
  "userdoc": {
    "kind": "user",
    "methods": {
      "calculateGrantClaim()": {
        "notice": "Calculate the vested and unclaimed months and tokens available for `_grantId` to claim Due to rounding errors once grant duration is reached, returns the entire left grant amount Returns (0, 0) if cliff has not been reached"
      },
      "claimVestedCoins()": {
        "notice": "Allows a grant recipient to claim their vested tokens. Errors if no tokens have vested It is advised recipients check they are entitled to claim via `calculateGrantClaim` before calling this"
      },
      "constructor": {
        "notice": "Do not leave an implementation contract uninitialized. An uninitialized implementation contract can be taken over by an attacker, which may impact the proxy.  To prevent the implementation contract from being used, you should invoke the _disableInitializers function in the constructor to automatically lock it when it is deployed"
      }
    },
    "notice": "Locks liquidity for Purchased Coins in a vested style. using Cliffs",
    "version": 1
  },
  "storageLayout": {
    "storage": [
      {
        "astId": 1333,
        "contract": "contracts/Lockers/PurchasedCoinVestingVault.sol:PurchasedCoinVestingVault",
        "label": "_status",
        "offset": 0,
        "slot": "0",
        "type": "t_uint256"
      },
      {
        "astId": 11482,
        "contract": "contracts/Lockers/PurchasedCoinVestingVault.sol:PurchasedCoinVestingVault",
        "label": "_owner",
        "offset": 0,
        "slot": "1",
        "type": "t_address"
      },
      {
        "astId": 11484,
        "contract": "contracts/Lockers/PurchasedCoinVestingVault.sol:PurchasedCoinVestingVault",
        "label": "_deployer",
        "offset": 0,
        "slot": "2",
        "type": "t_address"
      },
      {
        "astId": 11486,
        "contract": "contracts/Lockers/PurchasedCoinVestingVault.sol:PurchasedCoinVestingVault",
        "label": "_coinOrTokenAddress",
        "offset": 0,
        "slot": "3",
        "type": "t_address"
      },
      {
        "astId": 11495,
        "contract": "contracts/Lockers/PurchasedCoinVestingVault.sol:PurchasedCoinVestingVault",
        "label": "grant",
        "offset": 0,
        "slot": "4",
        "type": "t_struct(Grant)11480_storage"
      }
    ],
    "types": {
      "t_address": {
        "encoding": "inplace",
        "label": "address",
        "numberOfBytes": "20"
      },
      "t_struct(Grant)11480_storage": {
        "encoding": "inplace",
        "label": "struct PurchasedCoinVestingVault.Grant",
        "members": [
          {
            "astId": 11469,
            "contract": "contracts/Lockers/PurchasedCoinVestingVault.sol:PurchasedCoinVestingVault",
            "label": "startTime",
            "offset": 0,
            "slot": "0",
            "type": "t_uint256"
          },
          {
            "astId": 11471,
            "contract": "contracts/Lockers/PurchasedCoinVestingVault.sol:PurchasedCoinVestingVault",
            "label": "amount",
            "offset": 0,
            "slot": "1",
            "type": "t_uint256"
          },
          {
            "astId": 11473,
            "contract": "contracts/Lockers/PurchasedCoinVestingVault.sol:PurchasedCoinVestingVault",
            "label": "vestingDuration",
            "offset": 0,
            "slot": "2",
            "type": "t_uint256"
          },
          {
            "astId": 11475,
            "contract": "contracts/Lockers/PurchasedCoinVestingVault.sol:PurchasedCoinVestingVault",
            "label": "vestingCliff",
            "offset": 0,
            "slot": "3",
            "type": "t_uint256"
          },
          {
            "astId": 11477,
            "contract": "contracts/Lockers/PurchasedCoinVestingVault.sol:PurchasedCoinVestingVault",
            "label": "daysClaimed",
            "offset": 0,
            "slot": "4",
            "type": "t_uint256"
          },
          {
            "astId": 11479,
            "contract": "contracts/Lockers/PurchasedCoinVestingVault.sol:PurchasedCoinVestingVault",
            "label": "totalClaimed",
            "offset": 0,
            "slot": "5",
            "type": "t_uint256"
          }
        ],
        "numberOfBytes": "192"
      },
      "t_uint256": {
        "encoding": "inplace",
        "label": "uint256",
        "numberOfBytes": "32"
      }
    }
  }
}