{
  "address": "0xA8AE57b84100E4bA7D2c5C44b59Cb8Bbd28a0f4c",
  "abi": [
    {
      "inputs": [],
      "stateMutability": "nonpayable",
      "type": "constructor"
    },
    {
      "inputs": [
        {
          "internalType": "address",
          "name": "target",
          "type": "address"
        }
      ],
      "name": "AddressEmptyCode",
      "type": "error"
    },
    {
      "inputs": [
        {
          "internalType": "address",
          "name": "account",
          "type": "address"
        }
      ],
      "name": "AddressInsufficientBalance",
      "type": "error"
    },
    {
      "inputs": [],
      "name": "AlterWhitelistingAfterSaleStartTime",
      "type": "error"
    },
    {
      "inputs": [],
      "name": "AuditAfterSaleStartTime",
      "type": "error"
    },
    {
      "inputs": [],
      "name": "CampaignFailedOrCancelled",
      "type": "error"
    },
    {
      "inputs": [],
      "name": "CannotCancelAfterSaleStartTime",
      "type": "error"
    },
    {
      "inputs": [],
      "name": "ClosedSale",
      "type": "error"
    },
    {
      "inputs": [],
      "name": "EndDateLessThanStartTime",
      "type": "error"
    },
    {
      "inputs": [],
      "name": "ExceedMaxCap",
      "type": "error"
    },
    {
      "inputs": [],
      "name": "ExceedTierOneMaxCap",
      "type": "error"
    },
    {
      "inputs": [],
      "name": "ExceedTierOneUserLimit",
      "type": "error"
    },
    {
      "inputs": [],
      "name": "ExceedTierTwoMaxCap",
      "type": "error"
    },
    {
      "inputs": [],
      "name": "ExceedTierTwoUserLimit",
      "type": "error"
    },
    {
      "inputs": [],
      "name": "ExceedTierZeroMaxCap",
      "type": "error"
    },
    {
      "inputs": [],
      "name": "ExceedTierZeroUserLimit",
      "type": "error"
    },
    {
      "inputs": [],
      "name": "FailedInnerCall",
      "type": "error"
    },
    {
      "inputs": [],
      "name": "InsufficientBalance",
      "type": "error"
    },
    {
      "inputs": [],
      "name": "InvalidInitialization",
      "type": "error"
    },
    {
      "inputs": [],
      "name": "KYCAfterSaleStartTime",
      "type": "error"
    },
    {
      "inputs": [],
      "name": "LessThanMinBuy",
      "type": "error"
    },
    {
      "inputs": [
        {
          "internalType": "uint256",
          "name": "limit",
          "type": "uint256"
        }
      ],
      "name": "LiquidityAboveLimit",
      "type": "error"
    },
    {
      "inputs": [],
      "name": "LiquiditySetupAlreadyDone",
      "type": "error"
    },
    {
      "inputs": [],
      "name": "MinAllocationOutOfRange",
      "type": "error"
    },
    {
      "inputs": [],
      "name": "NewDateLessThanOldDate",
      "type": "error"
    },
    {
      "inputs": [],
      "name": "NoCoin",
      "type": "error"
    },
    {
      "inputs": [],
      "name": "NoCoinsToClaim",
      "type": "error"
    },
    {
      "inputs": [],
      "name": "NoSendValue",
      "type": "error"
    },
    {
      "inputs": [],
      "name": "NoSoldOutOrEndDate",
      "type": "error"
    },
    {
      "inputs": [],
      "name": "NoTokens",
      "type": "error"
    },
    {
      "inputs": [],
      "name": "NoTokensForLiquidity",
      "type": "error"
    },
    {
      "inputs": [],
      "name": "NotAdmin",
      "type": "error"
    },
    {
      "inputs": [],
      "name": "NotEndDate",
      "type": "error"
    },
    {
      "inputs": [],
      "name": "NotInTier0",
      "type": "error"
    },
    {
      "inputs": [],
      "name": "NotInTier1",
      "type": "error"
    },
    {
      "inputs": [],
      "name": "NotInTier2Whitelist",
      "type": "error"
    },
    {
      "inputs": [],
      "name": "NotInitializing",
      "type": "error"
    },
    {
      "inputs": [],
      "name": "NotOwner",
      "type": "error"
    },
    {
      "inputs": [],
      "name": "NotTokenSubmitted",
      "type": "error"
    },
    {
      "inputs": [],
      "name": "OngoingSales",
      "type": "error"
    },
    {
      "inputs": [
        {
          "internalType": "address",
          "name": "owner",
          "type": "address"
        }
      ],
      "name": "OwnableInvalidOwner",
      "type": "error"
    },
    {
      "inputs": [
        {
          "internalType": "address",
          "name": "account",
          "type": "address"
        }
      ],
      "name": "OwnableUnauthorizedAccount",
      "type": "error"
    },
    {
      "inputs": [],
      "name": "OwnerHasWithdrawnAlready",
      "type": "error"
    },
    {
      "inputs": [],
      "name": "OwnersCannotWithdraw",
      "type": "error"
    },
    {
      "inputs": [],
      "name": "PostponeBeforeSaleStartTime",
      "type": "error"
    },
    {
      "inputs": [],
      "name": "ReentrancyGuardReentrantCall",
      "type": "error"
    },
    {
      "inputs": [],
      "name": "RequireCancelorFail",
      "type": "error"
    },
    {
      "inputs": [],
      "name": "RouterApprovalFailed",
      "type": "error"
    },
    {
      "inputs": [
        {
          "internalType": "address",
          "name": "token",
          "type": "address"
        }
      ],
      "name": "SafeERC20FailedOperation",
      "type": "error"
    },
    {
      "inputs": [],
      "name": "SaleEndTimeBeforeStartTime",
      "type": "error"
    },
    {
      "inputs": [],
      "name": "SaleNotStarted",
      "type": "error"
    },
    {
      "inputs": [],
      "name": "SoldOutError",
      "type": "error"
    },
    {
      "inputs": [
        {
          "internalType": "uint256",
          "name": "limit",
          "type": "uint256"
        }
      ],
      "name": "TierCapTooLow",
      "type": "error"
    },
    {
      "inputs": [],
      "name": "TierOneCapExceedsHardCap",
      "type": "error"
    },
    {
      "inputs": [],
      "name": "TierOneMaxAllocationOutOfRange",
      "type": "error"
    },
    {
      "inputs": [],
      "name": "TierTwoCapExceedsHardCap",
      "type": "error"
    },
    {
      "inputs": [],
      "name": "TierTwoMaxAllocationOutOfRange",
      "type": "error"
    },
    {
      "inputs": [],
      "name": "UpdateAfterSaleStartTime",
      "type": "error"
    },
    {
      "anonymous": false,
      "inputs": [
        {
          "indexed": true,
          "internalType": "address",
          "name": "previousAdmin",
          "type": "address"
        },
        {
          "indexed": true,
          "internalType": "address",
          "name": "newAdmin",
          "type": "address"
        }
      ],
      "name": "AdminOwnershipTransferred",
      "type": "event"
    },
    {
      "anonymous": false,
      "inputs": [
        {
          "indexed": false,
          "internalType": "uint64",
          "name": "version",
          "type": "uint64"
        }
      ],
      "name": "Initialized",
      "type": "event"
    },
    {
      "anonymous": false,
      "inputs": [
        {
          "indexed": true,
          "internalType": "address",
          "name": "router",
          "type": "address"
        },
        {
          "indexed": true,
          "internalType": "address",
          "name": "token1",
          "type": "address"
        },
        {
          "indexed": true,
          "internalType": "address",
          "name": "token2",
          "type": "address"
        },
        {
          "indexed": false,
          "internalType": "uint256",
          "name": "amountToken1",
          "type": "uint256"
        },
        {
          "indexed": false,
          "internalType": "uint256",
          "name": "amountToken2",
          "type": "uint256"
        }
      ],
      "name": "LiquidityAddedToRouter",
      "type": "event"
    },
    {
      "anonymous": false,
      "inputs": [
        {
          "indexed": true,
          "internalType": "address",
          "name": "previousOwner",
          "type": "address"
        },
        {
          "indexed": true,
          "internalType": "address",
          "name": "newOwner",
          "type": "address"
        }
      ],
      "name": "OwnershipTransferred",
      "type": "event"
    },
    {
      "anonymous": false,
      "inputs": [
        {
          "indexed": false,
          "internalType": "address",
          "name": "user",
          "type": "address"
        },
        {
          "indexed": false,
          "internalType": "uint256",
          "name": "amount",
          "type": "uint256"
        }
      ],
      "name": "Refunded",
      "type": "event"
    },
    {
      "anonymous": false,
      "inputs": [],
      "name": "SoldOut",
      "type": "event"
    },
    {
      "anonymous": false,
      "inputs": [
        {
          "indexed": false,
          "internalType": "address",
          "name": "user",
          "type": "address"
        },
        {
          "indexed": false,
          "internalType": "uint256",
          "name": "amount",
          "type": "uint256"
        }
      ],
      "name": "ValueReceived",
      "type": "event"
    },
    {
      "anonymous": false,
      "inputs": [
        {
          "indexed": false,
          "internalType": "address",
          "name": "user",
          "type": "address"
        },
        {
          "indexed": false,
          "internalType": "uint256",
          "name": "amount",
          "type": "uint256"
        }
      ],
      "name": "Withdrawn",
      "type": "event"
    },
    {
      "inputs": [],
      "name": "_campaignFactoryAddress",
      "outputs": [
        {
          "internalType": "address",
          "name": "",
          "type": "address"
        }
      ],
      "stateMutability": "view",
      "type": "function"
    },
    {
      "inputs": [],
      "name": "_dexLocker",
      "outputs": [
        {
          "internalType": "contract IDexLocker",
          "name": "",
          "type": "address"
        }
      ],
      "stateMutability": "view",
      "type": "function"
    },
    {
      "inputs": [],
      "name": "auditUrl",
      "outputs": [
        {
          "internalType": "string",
          "name": "",
          "type": "string"
        }
      ],
      "stateMutability": "view",
      "type": "function"
    },
    {
      "inputs": [
        {
          "internalType": "address",
          "name": "",
          "type": "address"
        }
      ],
      "name": "buyInAllTiers",
      "outputs": [
        {
          "internalType": "uint256",
          "name": "",
          "type": "uint256"
        }
      ],
      "stateMutability": "view",
      "type": "function"
    },
    {
      "inputs": [
        {
          "internalType": "address",
          "name": "",
          "type": "address"
        }
      ],
      "name": "buyInOneTier",
      "outputs": [
        {
          "internalType": "uint256",
          "name": "",
          "type": "uint256"
        }
      ],
      "stateMutability": "view",
      "type": "function"
    },
    {
      "inputs": [
        {
          "internalType": "address",
          "name": "",
          "type": "address"
        }
      ],
      "name": "buyInTwoTier",
      "outputs": [
        {
          "internalType": "uint256",
          "name": "",
          "type": "uint256"
        }
      ],
      "stateMutability": "view",
      "type": "function"
    },
    {
      "inputs": [
        {
          "internalType": "address",
          "name": "",
          "type": "address"
        }
      ],
      "name": "buyInZeroTier",
      "outputs": [
        {
          "internalType": "uint256",
          "name": "",
          "type": "uint256"
        }
      ],
      "stateMutability": "view",
      "type": "function"
    },
    {
      "inputs": [],
      "name": "calcFairLaunchRate",
      "outputs": [
        {
          "internalType": "uint256",
          "name": "tokenRate",
          "type": "uint256"
        }
      ],
      "stateMutability": "view",
      "type": "function"
    },
    {
      "inputs": [],
      "name": "campaignKey",
      "outputs": [
        {
          "internalType": "uint256",
          "name": "",
          "type": "uint256"
        }
      ],
      "stateMutability": "view",
      "type": "function"
    },
    {
      "inputs": [],
      "name": "cancelCampaign",
      "outputs": [],
      "stateMutability": "nonpayable",
      "type": "function"
    },
    {
      "inputs": [
        {
          "internalType": "address",
          "name": "newAdmin",
          "type": "address"
        }
      ],
      "name": "changeAdmin",
      "outputs": [],
      "stateMutability": "nonpayable",
      "type": "function"
    },
    {
      "inputs": [],
      "name": "dexLockerAddress",
      "outputs": [
        {
          "internalType": "address",
          "name": "",
          "type": "address"
        }
      ],
      "stateMutability": "view",
      "type": "function"
    },
    {
      "inputs": [],
      "name": "dexRouterAddress",
      "outputs": [
        {
          "internalType": "address",
          "name": "",
          "type": "address"
        }
      ],
      "stateMutability": "view",
      "type": "function"
    },
    {
      "inputs": [],
      "name": "disableTier2Whitelist",
      "outputs": [],
      "stateMutability": "nonpayable",
      "type": "function"
    },
    {
      "inputs": [],
      "name": "finalizeAndSetupLiquidity",
      "outputs": [],
      "stateMutability": "nonpayable",
      "type": "function"
    },
    {
      "inputs": [],
      "name": "getCampaignInfo",
      "outputs": [
        {
          "internalType": "uint256",
          "name": "softcap",
          "type": "uint256"
        },
        {
          "internalType": "uint256",
          "name": "hardcap",
          "type": "uint256"
        },
        {
          "internalType": "uint256",
          "name": "saleStartTime",
          "type": "uint256"
        },
        {
          "internalType": "uint256",
          "name": "saleEndTime",
          "type": "uint256"
        },
        {
          "internalType": "uint256",
          "name": "listRate",
          "type": "uint256"
        },
        {
          "internalType": "uint256",
          "name": "dexListRate",
          "type": "uint256"
        },
        {
          "internalType": "uint256",
          "name": "liquidity",
          "type": "uint256"
        },
        {
          "internalType": "uint256",
          "name": "_liquidityReleaseTime",
          "type": "uint256"
        },
        {
          "internalType": "uint256",
          "name": "totalCoins",
          "type": "uint256"
        },
        {
          "internalType": "uint256",
          "name": "totalParticipant",
          "type": "uint256"
        },
        {
          "internalType": "bool",
          "name": "use_WhiteList",
          "type": "bool"
        },
        {
          "internalType": "bool",
          "name": "hasKyc",
          "type": "bool"
        },
        {
          "internalType": "bool",
          "name": "isAuditd",
          "type": "bool"
        },
        {
          "internalType": "string",
          "name": "_auditUrl",
          "type": "string"
        }
      ],
      "stateMutability": "view",
      "type": "function"
    },
    {
      "inputs": [],
      "name": "getCampaignSalePriceInfo",
      "outputs": [
        {
          "internalType": "uint256",
          "name": "",
          "type": "uint256"
        },
        {
          "internalType": "uint256",
          "name": "",
          "type": "uint256"
        },
        {
          "internalType": "uint256",
          "name": "",
          "type": "uint256"
        },
        {
          "internalType": "uint256",
          "name": "",
          "type": "uint256"
        },
        {
          "internalType": "uint256",
          "name": "",
          "type": "uint256"
        },
        {
          "internalType": "uint256",
          "name": "",
          "type": "uint256"
        },
        {
          "internalType": "uint256",
          "name": "",
          "type": "uint256"
        }
      ],
      "stateMutability": "view",
      "type": "function"
    },
    {
      "inputs": [],
      "name": "getDexListRate",
      "outputs": [
        {
          "internalType": "uint256",
          "name": "",
          "type": "uint256"
        }
      ],
      "stateMutability": "view",
      "type": "function"
    },
    {
      "inputs": [],
      "name": "getEndDate",
      "outputs": [
        {
          "internalType": "uint256",
          "name": "",
          "type": "uint256"
        }
      ],
      "stateMutability": "view",
      "type": "function"
    },
    {
      "inputs": [],
      "name": "getHardCap",
      "outputs": [
        {
          "internalType": "uint256",
          "name": "",
          "type": "uint256"
        }
      ],
      "stateMutability": "view",
      "type": "function"
    },
    {
      "inputs": [],
      "name": "hasKYC",
      "outputs": [
        {
          "internalType": "bool",
          "name": "",
          "type": "bool"
        }
      ],
      "stateMutability": "view",
      "type": "function"
    },
    {
      "inputs": [
        {
          "internalType": "address[4]",
          "name": "addresses",
          "type": "address[4]"
        },
        {
          "internalType": "uint256",
          "name": "tokensOnSale",
          "type": "uint256"
        },
        {
          "internalType": "uint256[10]",
          "name": "capAndDate",
          "type": "uint256[10]"
        },
        {
          "internalType": "address",
          "name": "_dexRouterAddress",
          "type": "address"
        },
        {
          "internalType": "uint256[4]",
          "name": "liquidityAllocationAndRates",
          "type": "uint256[4]"
        },
        {
          "internalType": "uint256[5]",
          "name": "teamTokenVestingDetails",
          "type": "uint256[5]"
        },
        {
          "internalType": "uint256[3]",
          "name": "raisedFundVestingDetails",
          "type": "uint256[3]"
        },
        {
          "internalType": "bool[2]",
          "name": "_useTokenOrRaisedFundVesting",
          "type": "bool[2]"
        },
        {
          "internalType": "string[6]",
          "name": "founderInfo",
          "type": "string[6]"
        },
        {
          "internalType": "contract DexLockerFactory",
          "name": "dexLockerFactory",
          "type": "address"
        }
      ],
      "name": "initialize",
      "outputs": [],
      "stateMutability": "payable",
      "type": "function"
    },
    {
      "inputs": [
        {
          "internalType": "address",
          "name": "_address",
          "type": "address"
        }
      ],
      "name": "isAllowedInTier0",
      "outputs": [
        {
          "internalType": "bool",
          "name": "",
          "type": "bool"
        }
      ],
      "stateMutability": "view",
      "type": "function"
    },
    {
      "inputs": [
        {
          "internalType": "address",
          "name": "_address",
          "type": "address"
        }
      ],
      "name": "isAllowedInTier1",
      "outputs": [
        {
          "internalType": "bool",
          "name": "",
          "type": "bool"
        }
      ],
      "stateMutability": "view",
      "type": "function"
    },
    {
      "inputs": [],
      "name": "isAudited",
      "outputs": [
        {
          "internalType": "bool",
          "name": "",
          "type": "bool"
        },
        {
          "internalType": "string",
          "name": "",
          "type": "string"
        }
      ],
      "stateMutability": "view",
      "type": "function"
    },
    {
      "inputs": [
        {
          "internalType": "bytes32[]",
          "name": "proof",
          "type": "bytes32[]"
        },
        {
          "internalType": "address",
          "name": "claimer",
          "type": "address"
        }
      ],
      "name": "isInTier2WhiteList",
      "outputs": [
        {
          "internalType": "bool",
          "name": "",
          "type": "bool"
        }
      ],
      "stateMutability": "view",
      "type": "function"
    },
    {
      "inputs": [],
      "name": "liquidityPairAddress",
      "outputs": [
        {
          "internalType": "address",
          "name": "",
          "type": "address"
        }
      ],
      "stateMutability": "view",
      "type": "function"
    },
    {
      "inputs": [],
      "name": "liquidityPairLockerAddress",
      "outputs": [
        {
          "internalType": "address",
          "name": "",
          "type": "address"
        }
      ],
      "stateMutability": "view",
      "type": "function"
    },
    {
      "inputs": [],
      "name": "liquidityReleaseInDays",
      "outputs": [
        {
          "internalType": "uint256",
          "name": "",
          "type": "uint256"
        }
      ],
      "stateMutability": "view",
      "type": "function"
    },
    {
      "inputs": [],
      "name": "maxAllocationPerUserTierOne",
      "outputs": [
        {
          "internalType": "uint256",
          "name": "",
          "type": "uint256"
        }
      ],
      "stateMutability": "view",
      "type": "function"
    },
    {
      "inputs": [],
      "name": "maxAllocationPerUserTierTwo",
      "outputs": [
        {
          "internalType": "uint256",
          "name": "",
          "type": "uint256"
        }
      ],
      "stateMutability": "view",
      "type": "function"
    },
    {
      "inputs": [],
      "name": "maxAllocationPerUserTierZero",
      "outputs": [
        {
          "internalType": "uint256",
          "name": "",
          "type": "uint256"
        }
      ],
      "stateMutability": "view",
      "type": "function"
    },
    {
      "inputs": [],
      "name": "minAllocationPerUser",
      "outputs": [
        {
          "internalType": "uint256",
          "name": "",
          "type": "uint256"
        }
      ],
      "stateMutability": "view",
      "type": "function"
    },
    {
      "inputs": [],
      "name": "owner",
      "outputs": [
        {
          "internalType": "address",
          "name": "",
          "type": "address"
        }
      ],
      "stateMutability": "view",
      "type": "function"
    },
    {
      "inputs": [
        {
          "internalType": "uint256",
          "name": "newDate",
          "type": "uint256"
        },
        {
          "internalType": "uint256",
          "name": "newEndDate",
          "type": "uint256"
        }
      ],
      "name": "postponeSale",
      "outputs": [],
      "stateMutability": "nonpayable",
      "type": "function"
    },
    {
      "inputs": [],
      "name": "purchaseTokenAddress",
      "outputs": [
        {
          "internalType": "address",
          "name": "",
          "type": "address"
        }
      ],
      "stateMutability": "view",
      "type": "function"
    },
    {
      "inputs": [
        {
          "internalType": "contract IERC20",
          "name": "_token",
          "type": "address"
        },
        {
          "internalType": "address",
          "name": "recipient",
          "type": "address"
        },
        {
          "internalType": "uint256",
          "name": "amount",
          "type": "uint256"
        }
      ],
      "name": "refundERC20",
      "outputs": [],
      "stateMutability": "nonpayable",
      "type": "function"
    },
    {
      "inputs": [],
      "name": "renounceOwnership",
      "outputs": [],
      "stateMutability": "nonpayable",
      "type": "function"
    },
    {
      "inputs": [],
      "name": "saleInfo",
      "outputs": [
        {
          "internalType": "address",
          "name": "tokenAddress",
          "type": "address"
        },
        {
          "internalType": "uint256",
          "name": "softCap",
          "type": "uint256"
        },
        {
          "internalType": "uint256",
          "name": "hardCap",
          "type": "uint256"
        },
        {
          "internalType": "uint256",
          "name": "saleStartTime",
          "type": "uint256"
        },
        {
          "internalType": "uint256",
          "name": "saleEndTime",
          "type": "uint256"
        },
        {
          "internalType": "uint256",
          "name": "liquidityPercent",
          "type": "uint256"
        },
        {
          "internalType": "uint256",
          "name": "listRate",
          "type": "uint256"
        },
        {
          "internalType": "uint256",
          "name": "dexListRate",
          "type": "uint256"
        },
        {
          "internalType": "string",
          "name": "logoUrl",
          "type": "string"
        },
        {
          "internalType": "string",
          "name": "desc",
          "type": "string"
        },
        {
          "internalType": "string",
          "name": "website",
          "type": "string"
        },
        {
          "internalType": "string",
          "name": "twitter",
          "type": "string"
        },
        {
          "internalType": "string",
          "name": "telegram",
          "type": "string"
        },
        {
          "internalType": "string",
          "name": "discord",
          "type": "string"
        },
        {
          "internalType": "uint256",
          "name": "tokensOnSale",
          "type": "uint256"
        }
      ],
      "stateMutability": "view",
      "type": "function"
    },
    {
      "inputs": [
        {
          "internalType": "bool",
          "name": "audit",
          "type": "bool"
        }
      ],
      "name": "setAudited",
      "outputs": [],
      "stateMutability": "nonpayable",
      "type": "function"
    },
    {
      "inputs": [
        {
          "internalType": "bool",
          "name": "kyc",
          "type": "bool"
        }
      ],
      "name": "setKYC",
      "outputs": [],
      "stateMutability": "nonpayable",
      "type": "function"
    },
    {
      "inputs": [
        {
          "internalType": "uint256",
          "name": "newValue",
          "type": "uint256"
        }
      ],
      "name": "setTier1TimeLineInHours",
      "outputs": [],
      "stateMutability": "nonpayable",
      "type": "function"
    },
    {
      "inputs": [
        {
          "internalType": "address",
          "name": "_tokenAddress",
          "type": "address"
        }
      ],
      "name": "setZSalesTokenAddress",
      "outputs": [],
      "stateMutability": "nonpayable",
      "type": "function"
    },
    {
      "inputs": [],
      "name": "startReceivingBids",
      "outputs": [],
      "stateMutability": "nonpayable",
      "type": "function"
    },
    {
      "inputs": [],
      "name": "status",
      "outputs": [
        {
          "internalType": "enum Campaign.CampaignStatus",
          "name": "",
          "type": "uint8"
        }
      ],
      "stateMutability": "view",
      "type": "function"
    },
    {
      "inputs": [
        {
          "internalType": "bytes32[]",
          "name": "proof",
          "type": "bytes32[]"
        },
        {
          "internalType": "uint256",
          "name": "purchasedAmount",
          "type": "uint256"
        }
      ],
      "name": "submitBid",
      "outputs": [],
      "stateMutability": "payable",
      "type": "function"
    },
    {
      "inputs": [
        {
          "internalType": "bytes32",
          "name": "whitelistMerkleRoot",
          "type": "bytes32"
        }
      ],
      "name": "submitTier2Whitelist",
      "outputs": [],
      "stateMutability": "nonpayable",
      "type": "function"
    },
    {
      "inputs": [],
      "name": "tierOnehardCap",
      "outputs": [
        {
          "internalType": "uint256",
          "name": "",
          "type": "uint256"
        }
      ],
      "stateMutability": "view",
      "type": "function"
    },
    {
      "inputs": [],
      "name": "tierTwohardCap",
      "outputs": [
        {
          "internalType": "uint256",
          "name": "",
          "type": "uint256"
        }
      ],
      "stateMutability": "view",
      "type": "function"
    },
    {
      "inputs": [],
      "name": "tierZerohardCap",
      "outputs": [
        {
          "internalType": "uint256",
          "name": "",
          "type": "uint256"
        }
      ],
      "stateMutability": "view",
      "type": "function"
    },
    {
      "inputs": [],
      "name": "tokenAddress",
      "outputs": [
        {
          "internalType": "address",
          "name": "",
          "type": "address"
        }
      ],
      "stateMutability": "view",
      "type": "function"
    },
    {
      "inputs": [],
      "name": "totalCoinInTierOne",
      "outputs": [
        {
          "internalType": "uint256",
          "name": "",
          "type": "uint256"
        }
      ],
      "stateMutability": "view",
      "type": "function"
    },
    {
      "inputs": [],
      "name": "totalCoinInTierTwo",
      "outputs": [
        {
          "internalType": "uint256",
          "name": "",
          "type": "uint256"
        }
      ],
      "stateMutability": "view",
      "type": "function"
    },
    {
      "inputs": [],
      "name": "totalCoinInTierZero",
      "outputs": [
        {
          "internalType": "uint256",
          "name": "",
          "type": "uint256"
        }
      ],
      "stateMutability": "view",
      "type": "function"
    },
    {
      "inputs": [],
      "name": "totalCoinReceived",
      "outputs": [
        {
          "internalType": "uint256",
          "name": "",
          "type": "uint256"
        }
      ],
      "stateMutability": "view",
      "type": "function"
    },
    {
      "inputs": [],
      "name": "totalParticipants",
      "outputs": [
        {
          "internalType": "uint256",
          "name": "",
          "type": "uint256"
        }
      ],
      "stateMutability": "view",
      "type": "function"
    },
    {
      "inputs": [],
      "name": "totalTeamTokensToBeVested",
      "outputs": [
        {
          "internalType": "uint256",
          "name": "",
          "type": "uint256"
        }
      ],
      "stateMutability": "view",
      "type": "function"
    },
    {
      "inputs": [
        {
          "internalType": "address",
          "name": "newOwner",
          "type": "address"
        }
      ],
      "name": "transferOwnership",
      "outputs": [],
      "stateMutability": "nonpayable",
      "type": "function"
    },
    {
      "inputs": [
        {
          "internalType": "string",
          "name": "logoUrl",
          "type": "string"
        },
        {
          "internalType": "string",
          "name": "desc",
          "type": "string"
        },
        {
          "internalType": "string",
          "name": "website",
          "type": "string"
        },
        {
          "internalType": "string",
          "name": "twitter",
          "type": "string"
        },
        {
          "internalType": "string",
          "name": "telegram",
          "type": "string"
        },
        {
          "internalType": "string",
          "name": "discord",
          "type": "string"
        }
      ],
      "name": "updateCampaignFounderDetails",
      "outputs": [],
      "stateMutability": "nonpayable",
      "type": "function"
    },
    {
      "inputs": [
        {
          "internalType": "uint256",
          "name": "_tierOneHardCap",
          "type": "uint256"
        },
        {
          "internalType": "uint256",
          "name": "_tierTwoHardCap",
          "type": "uint256"
        },
        {
          "internalType": "uint256",
          "name": "_minAllocationPerUser",
          "type": "uint256"
        },
        {
          "internalType": "uint256",
          "name": "_maxAllocationPerUserTierOne",
          "type": "uint256"
        },
        {
          "internalType": "uint256",
          "name": "_maxAllocationPerUserTierTwo",
          "type": "uint256"
        }
      ],
      "name": "updateTierDetails",
      "outputs": [],
      "stateMutability": "nonpayable",
      "type": "function"
    },
    {
      "inputs": [],
      "name": "useRaisedFundsVesting",
      "outputs": [
        {
          "internalType": "bool",
          "name": "",
          "type": "bool"
        }
      ],
      "stateMutability": "view",
      "type": "function"
    },
    {
      "inputs": [],
      "name": "useTokenVesting",
      "outputs": [
        {
          "internalType": "bool",
          "name": "",
          "type": "bool"
        }
      ],
      "stateMutability": "view",
      "type": "function"
    },
    {
      "inputs": [],
      "name": "useWhiteList",
      "outputs": [
        {
          "internalType": "bool",
          "name": "",
          "type": "bool"
        }
      ],
      "stateMutability": "view",
      "type": "function"
    },
    {
      "inputs": [],
      "name": "withdrawFunds",
      "outputs": [],
      "stateMutability": "nonpayable",
      "type": "function"
    },
    {
      "inputs": [],
      "name": "withdrawOwnerTokens",
      "outputs": [],
      "stateMutability": "nonpayable",
      "type": "function"
    }
  ],
  "transactionHash": "0x62a52a65bb58f495823284c7c2ef1bff5e8a23bce737cf05f997f940d21514fa",
  "args": [],
  "numDeployments": 1,
  "solcInputHash": "90bc6cfc9d445fa893c76731a2c281a5",
  "bytecode": "0x6080806040523461016d5733156101575760008054336001600160a01b0319821681178355916001600160a01b03909116907f8be0079c531659141344cd1fd0a4f28419497f9722a3daafe3b4186f6b6457e09080a360018055600060035560ff196006541660065560018060a01b0319601d5416601d556002602755600360285560ff19602954166029557ff0c57e16840df040f15088dc2f81fe391c3923bec73e23a9662efc9c229c6a005460ff8160401c16610146576002600160401b03196001600160401b038216016100e0575b604051615eb690816101738239f35b6001600160401b0319166001600160401b039081177ff0c57e16840df040f15088dc2f81fe391c3923bec73e23a9662efc9c229c6a005581527fc7f505b2f371ae2175ee4913f4499e1f2633a7b5936321eed1cdaeb6115181d290602090a138806100d1565b63f92ee8a960e01b60005260046000fd5b631e4fbdf760e01b600052600060045260246000fd5b600080fdfe610320604052600436101561001357600080fd5b60006080526080513560e01c80630bf75580146141815780630caf5f1a14612d2357806311493b0114612cff5780631954e48214612ce05780631fe9c37514612cc1578063200d2ed214612c9657806324600fc3146129f75780632884add8146129d05780632a454f08146129b1578063325af0f51461299257806336140c50146129735780633de419fb1461293757806340af8dd71461291357806340c397da146128e857806346c00c33146128b957806348c447121461286d5780634aac3dac146128455780634bcd137e1461282657806351cb1876146127ed5780635e906079146127b157806360a5b604146126e857806360fa3892146126935780636b04fa541461267157806370a566e214612652578063715018a6146125f357806371b9510d146125b75780637b94a403146125905780637ff0011a14612526578063843f259d146125075780638da5cb5b146124de5780638e3695b81461203d5780638f28397014611fbf578063909a40b614611f6d57806394722d4214611f20578063980e784414611ebd5780639d76ea5814611e95578063a16ee9dc14611e76578063a26dbf2614611e57578063b135648814611e38578063b65215b814611e10578063bb05c30e14611d73578063bc5ee23814611d54578063bc89ff2b14611d15578063bde3386214611ced578063bf0a07bd14611cce578063cb3416e314611ca1578063cbbc15eb14611c79578063cc4decef14611c5a578063cc86c3e514611be0578063ccbccbe514611942578063cf00881414611916578063d510f932146118f7578063d6290cd71461183f578063d8ee4c3614610db8578063d99f867414610d94578063e7f67fb114610d6c578063eb7e7f2c14610d4d578063eccc215514610ce7578063f2fde38b14610c76578063f5a1e7af14610406578063f71579e0146103d1578063f77656a6146103b2578063f89fd0341461034f578063fd256ee1146103305763fe36f6c9146102ee57600080fd5b3461032a57602060031936011261032a576001600160a01b0361030f6141a4565b16608051526035602052602060406080512054604051908152f35b60805180fd5b3461032a5760805160031936011261032a576020601b54604051908152f35b3461032a5760805160031936011261032a576001600160a01b03602654163303610386576080516006805460ff1916600117905580f35b7f30cd747100000000000000000000000000000000000000000000000000000000608051526004608051fd5b3461032a5760805160031936011261032a576020603354604051908152f35b3461032a5760805160031936011261032a576104026103ee614335565b6040519182916020835260208301906143ee565b0390f35b604060031936011261032a5760043567ffffffffffffffff811161032a573660238201121561032a57806004013567ffffffffffffffff811161032a573660248260051b8401011161032a576024359161045e615cfd565b601d546001600160a01b031680610bfc575034915b60ff60065416600581101580610baa57600282148015610bee575b610bc257610baa57600103610b7e57601954600b549081811015610b5257600d544211610b2657846104bf916146c7565b11610afa57602e548310610ace57600c54428111610674575060ff60025416610624575b50506104f181601c546146c7565b602c54106105f8573360805152603660205261051381604060805120546146c7565b603154106105cc577f7e71433ddf847725166244795048ecf3e3f9f35628254ecbf736056664233493916105956105be923360805152603660205260406080512061055f8282546146c7565b90553360805152603760205260406080512061057c8282546146c7565b905561058a816019546146c7565b601955601c546146c7565b601c556105a3601e5461599f565b601e5560408051338152602081019290925290918291820190565b0390a15b6001805560805180f35b7f92bf02be00000000000000000000000000000000000000000000000000000000608051526004608051fd5b7fcea1f8fa00000000000000000000000000000000000000000000000000000000608051526004608051fd5b61063761063c92339260243692016142af565b614615565b156106485782806104e3565b7ff016682300000000000000000000000000000000000000000000000000000000608051526004608051fd5b9150506001600160a01b0360265416906040517f6727269a0000000000000000000000000000000000000000000000000000000081526080516004820152602081602481865afa908115610a775760805191610aaf575b5080610a84575b156108315750506106e233615764565b15610805576106f381601a546146c7565b602a54106107d9573360805152603460205261071581604060805120546146c7565b602f54106107ad577f7e71433ddf847725166244795048ecf3e3f9f35628254ecbf736056664233493916107976107a592336080515260346020526040608051206107618282546146c7565b90553360805152603760205260406080512061077e8282546146c7565b905561078c816019546146c7565b601955601a546146c7565b601a556105a3601e5461599f565b0390a16105c2565b7f255be30700000000000000000000000000000000000000000000000000000000608051526004608051fd5b7f622f8eac00000000000000000000000000000000000000000000000000000000608051526004608051fd5b7f4572233200000000000000000000000000000000000000000000000000000000608051526004608051fd5b6020602492604051938480927f6727269a000000000000000000000000000000000000000000000000000000008252600160048301525afa918215610a775760805192610a46575b5081610a02575b50156109d65761088f3361442f565b156109aa576108a081601b546146c7565b602b541061097e57336080515260356020526108c281604060805120546146c7565b60305410610952577f7e71433ddf847725166244795048ecf3e3f9f35628254ecbf736056664233493916109446107a5923360805152603560205260406080512061090e8282546146c7565b90553360805152603760205260406080512061092b8282546146c7565b9055610939816019546146c7565b601955601b546146c7565b601b556105a3601e5461599f565b7fa6b88d4300000000000000000000000000000000000000000000000000000000608051526004608051fd5b7f21f0cbe300000000000000000000000000000000000000000000000000000000608051526004608051fd5b7f47a0f6f600000000000000000000000000000000000000000000000000000000608051526004608051fd5b7f2d0a346e00000000000000000000000000000000000000000000000000000000608051526004608051fd5b9050602754610e10810290808204610e101490151715610a2e57610a25916144d6565b42101583610880565b634e487b7160e01b6080515260116004526024608051fd5b610a6991925060203d602011610a70575b610a618183614202565b8101906146af565b9084610879565b503d610a57565b6040513d608051823e3d90fd5b50602854610e10810290808204610e101490151715610a2e57610aa790826144d6565b4210156106d2565b610ac8915060203d602011610a7057610a618183614202565b856106cb565b7f1b34a19900000000000000000000000000000000000000000000000000000000608051526004608051fd5b7f9b57854300000000000000000000000000000000000000000000000000000000608051526004608051fd5b7fc5b0816400000000000000000000000000000000000000000000000000000000608051526004608051fd5b7f7f6df6bb00000000000000000000000000000000000000000000000000000000608051526004608051fd5b7f25de07a700000000000000000000000000000000000000000000000000000000608051526004608051fd5b634e487b7160e01b6080515260216004526024608051fd5b7f894d929f00000000000000000000000000000000000000000000000000000000608051526004608051fd5b50506080516003821461048e565b91603b5460120360128111610a2e57610c20610c1a610c71926144e3565b866144ad565b93604051907f23b872dd00000000000000000000000000000000000000000000000000000000602083015233602483015230604483015286606483015260648252610c6c608483614202565b615d68565b610473565b3461032a57602060031936011261032a57610c8f6141a4565b610c97615a72565b6001600160a01b03811615610cb557610caf906159ae565b60805180f35b7f1e4fbdf700000000000000000000000000000000000000000000000000000000608051526080516004526024608051fd5b3461032a5760805160031936011261032a576001600160a01b03601f54163303610d215760206001600160a01b0360395416604051908152f35b7f7bfa4b9f00000000000000000000000000000000000000000000000000000000608051526004608051fd5b3461032a5760805160031936011261032a576020601c54604051908152f35b3461032a5760805160031936011261032a5760206001600160a01b0360185416604051908152f35b3461032a5760805160031936011261032a57602060ff600254166040519015158152f35b3461032a5760c060031936011261032a5760043567ffffffffffffffff811161032a57610de9903690600401614250565b60243567ffffffffffffffff811161032a57610e09903690600401614250565b9060443567ffffffffffffffff811161032a57610e2a903690600401614250565b9160643567ffffffffffffffff811161032a57610e4b903690600401614250565b9160843567ffffffffffffffff811161032a57610e6c903690600401614250565b9160a43567ffffffffffffffff811161032a57610e8d903690600401614250565b91610e96615a72565b600c5442116118135780519067ffffffffffffffff82116111d9578190610ebe6011546142fb565b601f8111611764575b506020906001601f8411146116dd57608051926116d2575b50506000198260011b9260031b1c1916176011555b80519067ffffffffffffffff82116111d9578190610f136012546142fb565b601f8111611623575b506020906001601f84111461159c5760805192611591575b50506000198260011b9260031b1c1916176012555b835167ffffffffffffffff81116111d957610f656013546142fb565b601f81116114ec575b506020946001601f831114611466579481929394956080519261145b575b50506000198260011b9260031b1c1916176013555b825167ffffffffffffffff81116111d957610fbd6014546142fb565b601f81116113b6575b5060206001601f831114611330578192939460805192611325575b50506000198260011b9260031b1c1916176014555b815167ffffffffffffffff81116111d9576110126015546142fb565b601f8111611280575b506020926001601f8311146111fc5792819293608051926111f1575b50506000198260011b9260031b1c1916176015555b805167ffffffffffffffff81116111d9576110686016546142fb565b601f8111611134575b506020916001601f8311146110b157918192608051926110a6575b50506000198260011b9260031b1c19161760165560805180f35b01519050828061108c565b601f198216926016608051527fd833147d7dc355ba459fc788f669e58cfaf9dc25ddcd0702e87d69c7b5124289916080515b85811061111c57508360019510611103575b505050811b01601655610caf565b015160001960f88460031b161c191690558280806110f5565b919260206001819286850151815501940192016110e3565b601660805152601f820160051c7fd833147d7dc355ba459fc788f669e58cfaf9dc25ddcd0702e87d69c7b51242890190602083106111b1575b601f0160051c7fd833147d7dc355ba459fc788f669e58cfaf9dc25ddcd0702e87d69c7b512428901905b8181106111a45750611071565b6080518155600101611197565b7fd833147d7dc355ba459fc788f669e58cfaf9dc25ddcd0702e87d69c7b5124289915061116d565b634e487b7160e01b6080515260416004526024608051fd5b015190508380611037565b601f198216936015608051527f55f448fdea98c4d29eb340757ef0a66cd03dbb9538908a6a81d96026b71ec475916080515b868110611268575083600195961061124f575b505050811b0160155561104c565b015160001960f88460031b161c19169055838080611241565b9192602060018192868501518155019401920161122e565b601560805152601f820160051c7f55f448fdea98c4d29eb340757ef0a66cd03dbb9538908a6a81d96026b71ec4750190602083106112fd575b601f0160051c7f55f448fdea98c4d29eb340757ef0a66cd03dbb9538908a6a81d96026b71ec47501905b8181106112f0575061101b565b60805181556001016112e3565b7f55f448fdea98c4d29eb340757ef0a66cd03dbb9538908a6a81d96026b71ec47591506112b9565b015190508480610fe1565b601f198216906014608051527fce6d7b5282bd9a3661ae061feed1dbda4e52ab073b1f9285be6e155d9c38d4ec916080515b81811061139e57509583600195969710611385575b505050811b01601455610ff6565b015160001960f88460031b161c19169055848080611377565b9192602060018192868b015181550194019201611362565b601460805152601f820160051c7fce6d7b5282bd9a3661ae061feed1dbda4e52ab073b1f9285be6e155d9c38d4ec019060208310611433575b601f0160051c7fce6d7b5282bd9a3661ae061feed1dbda4e52ab073b1f9285be6e155d9c38d4ec01905b8181106114265750610fc6565b6080518155600101611419565b7fce6d7b5282bd9a3661ae061feed1dbda4e52ab073b1f9285be6e155d9c38d4ec91506113ef565b015190508580610f8c565b601f198216956013608051527f66de8ffda797e3de9c05e8fc57b3bf0ec28a930d40b0d285d93c06501cf6a090916080515b8881106114d4575083600195969798106114bb575b505050811b01601355610fa1565b015160001960f88460031b161c191690558580806114ad565b91926020600181928685015181550194019201611498565b601360805152601f820160051c7f66de8ffda797e3de9c05e8fc57b3bf0ec28a930d40b0d285d93c06501cf6a090019060208310611569575b601f0160051c7f66de8ffda797e3de9c05e8fc57b3bf0ec28a930d40b0d285d93c06501cf6a09001905b81811061155c5750610f6e565b608051815560010161154f565b7f66de8ffda797e3de9c05e8fc57b3bf0ec28a930d40b0d285d93c06501cf6a0909150611525565b015190508680610f34565b91601f1916916012608051527fbb8a6a4669ba250d26cd7a459eca9d215f8307e33aebe50379bc5a3617ec3444926080515b81811061160b57509084600195949392106115f2575b505050811b01601255610f49565b015160001960f88460031b161c191690558680806115e4565b929360206001819287860151815501950193016115ce565b909150601260805152601f830160051c7fbb8a6a4669ba250d26cd7a459eca9d215f8307e33aebe50379bc5a3617ec34440190602084106116aa575b90601f8493920160051c7fbb8a6a4669ba250d26cd7a459eca9d215f8307e33aebe50379bc5a3617ec344401905b81811061169a5750610f1c565b608051815584935060010161168d565b7fbb8a6a4669ba250d26cd7a459eca9d215f8307e33aebe50379bc5a3617ec3444915061165f565b015190508780610edf565b91601f1916916011608051527f31ecc21a745e3968a04e9570e4425bc18fa8019c68028196b546d1669c200c68926080515b81811061174c5750908460019594939210611733575b505050811b01601155610ef4565b015160001960f88460031b161c19169055878080611725565b9293602060018192878601518155019501930161170f565b909150601160805152601f830160051c7f31ecc21a745e3968a04e9570e4425bc18fa8019c68028196b546d1669c200c680190602084106117eb575b90601f8493920160051c7f31ecc21a745e3968a04e9570e4425bc18fa8019c68028196b546d1669c200c6801905b8181106117db5750610ec7565b60805181558493506001016117ce565b7f31ecc21a745e3968a04e9570e4425bc18fa8019c68028196b546d1669c200c6891506117a0565b7f994df61800000000000000000000000000000000000000000000000000000000608051526004608051fd5b3461032a5760805160031936011261032a57600a54600b5490600c54600d54600f54601054600e5460085460195491601e54936002549560045460ff1697611885614335565b996040519c8d9c8d5260208d015260408c015260608b015260808a015260a089015260c088015260e087015261010086015261012085015260ff8116151561014085015260081c60ff16151561016084015215156101808301526101a082016101c090526101c08201610402916143ee565b3461032a5760805160031936011261032a576020602e54604051908152f35b3461032a5760805160031936011261032a57611930615a72565b60ff1960025416600255608051608051f35b3461032a5760805160031936011261032a5761195c615a72565b60ff6006541660058110159081610baa5760038114159182611bd0575b82611bbe575b5050611b9257600d544210611b665760ff60295416611b3a57601954600a5411611b23575b6001600160a01b036009541660ff60065416600581101580610baa57600382148015611b15575b15611a805750506040516370a0823160e01b8152306004820152602081602481855afa908115610a775760805191611a49575b508015611a1d57610caf91600160ff1960295416176029553390615a1d565b7fdf95788300000000000000000000000000000000000000000000000000000000608051526004608051fd5b90506020813d602011611a78575b81611a6460209383614202565b81010312611a735751826119fe565b600080fd5b3d9150611a57565b610baa57600414611a92575b50610caf565b6040516370a0823160e01b8152306004820152602081602481855afa908115610a775760805191611ae3575b508015611a1d57611add91600160ff1960295416176029553390615a1d565b80611a8c565b90506020813d602011611b0d575b81611afe60209383614202565b81010312611a73575182611abe565b3d9150611af1565b5050608051600282146119cb565b611b35600360ff196006541617600655565b6119a4565b7f63e9f2ee00000000000000000000000000000000000000000000000000000000608051526004608051fd5b7f42a941a200000000000000000000000000000000000000000000000000000000608051526004608051fd5b7feacd450a00000000000000000000000000000000000000000000000000000000608051526004608051fd5b909150610baa5760041415818061197f565b5060805160028214159250611979565b3461032a57602060031936011261032a57611bf9614225565b6001600160a01b03601f54163303610d2157600c54421015611c2e5760ff60ff19600454169115151617600455608051608051f35b7f2935b03400000000000000000000000000000000000000000000000000000000608051526004608051fd5b3461032a5760805160031936011261032a576020603054604051908152f35b3461032a5760805160031936011261032a5760206001600160a01b0360265416604051908152f35b3461032a57602060031936011261032a576020611cc4611cbf6141a4565b615764565b6040519015158152f35b3461032a5760805160031936011261032a576020600b54604051908152f35b3461032a5760805160031936011261032a5760206001600160a01b03601d5416604051908152f35b3461032a5760805160031936011261032a5760ff60045416611d35614335565b90610402604051928392151583526040602084015260408301906143ee565b3461032a5760805160031936011261032a576020601a54604051908152f35b3461032a57602060031936011261032a57611d8c614225565b6001600160a01b03601f54163303610d2157600c54421015611de4577fffffffffffffffffffffffffffffffffffffffffffffffffffffffffffff00ff61ff0060025492151560081b16911617600255608051608051f35b7f4ea6e6d200000000000000000000000000000000000000000000000000000000608051526004608051fd5b3461032a5760805160031936011261032a5760206001600160a01b0360395416604051908152f35b3461032a5760805160031936011261032a576020600d54604051908152f35b3461032a5760805160031936011261032a576020601e54604051908152f35b3461032a5760805160031936011261032a576020602a54604051908152f35b3461032a5760805160031936011261032a5760206001600160a01b0360095416604051908152f35b3461032a5760805160031936011261032a57611ed7615a72565b600c54421015611ef4576080516006805460ff1916600217905580f35b7fc0ac0a3f00000000000000000000000000000000000000000000000000000000608051526004608051fd5b3461032a57602060031936011261032a57611f396141a4565b6001600160a01b03601f54163303610d21576001600160a01b03166001600160a01b03196020541617602055608051608051f35b3461032a5760805160031936011261032a5760e0600f54601054600a54600b54602b5490602c549260315494604051968752602087015260408601526060850152608084015260a083015260c0820152f35b3461032a57602060031936011261032a57611fd86141a4565b601f546001600160a01b03811690338203610d2157813303610d21576001600160a01b036001600160a01b031993169283911617601f557f1747af0dff66eb7165b467825c51774199b063a569a06cdea4565bac5d1be8cf608051608051a360805180f35b3461032a5760805160031936011261032a576001600160a01b0360095416600a54600b54600c54600d54600e54600f54601054608051506040516080518160115491612088836142fb565b80835292600181169081156124bf5750600114612477575b6120ac92500382614202565b60805160405160125490939184906120c3836142fb565b80835292600181169081156124585750600114612410575b6120e792500384614202565b60805160405160135490959186906120fe836142fb565b80835292600181169081156123f157506001146123a9575b61212292500386614202565b6080516040516014549097918890612139836142fb565b808352926001811690811561238a5750600114612343575b61215d92500388614202565b6080516040516015549099918a90612174836142fb565b808352926001811690811561232457506001146122dd575b6121989250038a614202565b60805150604051998a6080516016546121b0816142fb565b80845290600181169081156122c15750600114612281575b50036121d4908c614202565b6017549b6040519e8f9e8f91825260208201526040015260608d015260808c015260a08b015260c08a015260e089015261010088016101e090526101e0880161221c916143ee565b87810361012089015261222e916143ee565b868103610140880152612240916143ee565b858103610160870152612252916143ee565b848103610180860152612264916143ee565b8381036101a0850152612276916143ee565b906101c08301520390f35b608080516016905251602081209092505b8183106122a65750508101602001386121c8565b80602092948385600194549201015201910190918d92612292565b6020935060ff1991501682840152151560051b820101386121c8565b509060156080515260206080512090608051915b8183106123095750509060206121989282010161218c565b80602092948385600194549201015201910190918b926122f1565b6020925061219894915060ff191682840152151560051b82010161218c565b509060146080515260206080512090608051915b81831061236f57505090602061215d92820101612151565b80602092948385600194549201015201910190918992612357565b6020925061215d94915060ff191682840152151560051b820101612151565b509060136080515260206080512090608051915b8183106123d557505090602061212292820101612116565b6020919350806001915483858c010152019101909187926123bd565b6020925061212294915060ff191682840152151560051b820101612116565b509060126080515260206080512090608051915b81831061243c5750509060206120e7928201016120db565b6020919350806001915483858a01015201910190918592612424565b602092506120e794915060ff191682840152151560051b8201016120db565b509060116080515260206080512090608051915b8183106124a35750509060206120ac928201016120a0565b602091935080600191548385880101520191019091839261248b565b602092506120ac94915060ff191682840152151560051b8201016120a0565b3461032a5760805160031936011261032a5760206001600160a01b036080515416604051908152f35b3461032a5760805160031936011261032a576020601054604051908152f35b3461032a57602060031936011261032a5761253f615a72565b600c5442101561256457600160ff196002541617600255600435603255608051608051f35b7fa5b23c1a00000000000000000000000000000000000000000000000000000000608051526004608051fd5b3461032a5760805160031936011261032a57602060ff60025460081c166040519015158152f35b3461032a57602060031936011261032a576001600160a01b036125d86141a4565b16608051526036602052602060406080512054604051908152f35b3461032a5760805160031936011261032a5761260d615a72565b60805180546001600160a01b0319811682556001600160a01b03167f8be0079c531659141344cd1fd0a4f28419497f9722a3daafe3b4186f6b6457e08280a360805180f35b3461032a5760805160031936011261032a576020602b54604051908152f35b3461032a5760805160031936011261032a5761268b615cfd565b6105c261470e565b3461032a57604060031936011261032a5760043567ffffffffffffffff811161032a573660238201121561032a57611cc46126da60209236906024816004013591016142af565b6126e26141ba565b90614615565b3461032a57604060031936011261032a57602435600435612707615a72565b600c548042101561278557811115612759578082111561272d57600c55600d5560805180f35b7f365a7f2c00000000000000000000000000000000000000000000000000000000608051526004608051fd5b7f6a7b851d00000000000000000000000000000000000000000000000000000000608051526004608051fd5b7f949a04db00000000000000000000000000000000000000000000000000000000608051526004608051fd5b3461032a57602060031936011261032a576001600160a01b036127d26141a4565b16608051526034602052602060406080512054604051908152f35b3461032a5760a060031936011261032a57612806615a72565b600c54421161181357610caf608435606435604435602435600435615acd565b3461032a5760805160031936011261032a576020600854604051908152f35b3461032a5760805160031936011261032a5760206001600160a01b0360075416604051908152f35b3461032a57606060031936011261032a576004356001600160a01b038116810361032a576128996141ba565b906001600160a01b03601f54163303610d2157610caf9160443591615a1d565b3461032a57602060031936011261032a576001600160a01b03601f54163303610d215760043560275560805180f35b3461032a5760805160031936011261032a5760206001600160a01b0360065460081c16604051908152f35b3461032a5760805160031936011261032a57602061292f614511565b604051908152f35b3461032a57602060031936011261032a576001600160a01b036129586141a4565b16608051526037602052602060406080512054604051908152f35b3461032a5760805160031936011261032a576020603154604051908152f35b3461032a5760805160031936011261032a576020602c54604051908152f35b3461032a5760805160031936011261032a576020600354604051908152f35b3461032a5760805160031936011261032a57602060ff602d5460081c166040519015158152f35b3461032a5760805160031936011261032a5760ff600654166005811015610baa57600403612c31576001600160a01b0360805154163314612c6a57600d54421080612c5d575b612c3157336080515260376020526040608051205415612c0557601954600a5411612bee575b3360805152603760205260406080512054336080515260376020526080516040608051205560ff600654166005811015610baa57600303612b7057601d546001600160a01b031680612b3f57506080518115612b36575b6080519081908190819085903390f115610a77575b603b546012039060128211610a2e57612b15612b2d91612b0f7fd7dee2702d63ad89917b6a4da9981c90c4d24f8c2bdfd64c604ecae57d8d0651946144e3565b906144f1565b60408051338152602081019290925290918291820190565b0390a160805180f35b506108fc612aba565b603b546012039060128211610a2e57612b63612b5d612b6b936144e3565b846144f1565b903390615a1d565b612acf565b600f54612b7c916144ad565b6001600160a01b0360095416603a546012039060128211610a2e57612b63612b5d612ba6936144e3565b603a546012039060128211610a2e57612b15612be691612b0f7f7084f5476618d8e60b11ef0d7d3f06914655adb8793e28ff7f018d4c76d505d5946144e3565b0390a1610caf565b612c00600360ff196006541617600655565b612a63565b7fbf2af91c00000000000000000000000000000000000000000000000000000000608051526004608051fd5b7ff037aafa00000000000000000000000000000000000000000000000000000000608051526004608051fd5b50601954600b5411612a3d565b7ff97cba9300000000000000000000000000000000000000000000000000000000608051526004608051fd5b3461032a5760805160031936011261032a5760ff600654166040516005821015610baa576020918152f35b3461032a5760805160031936011261032a576020602f54604051908152f35b3461032a5760805160031936011261032a576020601954604051908152f35b3461032a5760805160031936011261032a57602060ff602d54166040519015158152f35b61040060031936011261032a57366023121561032a576080610200819052604051610240819052612d549190614202565b610240513660841161032a576004905b60848210614161573660c3121561032a57612d8d600a60051b6040516102205261022051614202565b61022051366101e41161032a5760a4905b6101e48210614151576101e4356101e08190526001600160a01b038116900361032a5736610223121561032a57612de3600460051b6040516102605261026051614202565b61026051366102841161032a57610204905b610284821061414157366102a3121561032a57612e1f6005801b6040516102c0526102c051614202565b6102c051366103241161032a57610284905b61032482106141315736610343121561032a57612e5c600360051b6040516102805261028051614202565b61028051366103841161032a57610324905b610384821061412157366103a3121561032a57604061030081905280516102a0819052612e9b9190614202565b6102a051366103c41161032a57610384905b6103c48210614108576103c43567ffffffffffffffff811161032a573660238201121561032a57610300515190612ee560c083614202565b819060c481019036821161032a5780600401925b8284106140d857846103e4356001600160a01b038116810361032a577ff0c57e16840df040f15088dc2f81fe391c3923bec73e23a9662efc9c229c6a00546102e05267ffffffffffffffff6102e05116801590816140c4575b60011490816140ba575b1590816140b1575b50614085576102e0517fffffffffffffffffffffffffffffffffffffffffffffffff000000000000000081166001177ff0c57e16840df040f15088dc2f81fe391c3923bec73e23a9662efc9c229c6a0055610300511c60ff161561402d575b6060610220510151610300516102205101511015614001576113ec610260515110613fcf576001600160a01b0360206102405101511690816001600160a01b03196026541617602655600360285560026027556103005151917f44dc44ac000000000000000000000000000000000000000000000000000000008352602083600481845afa9283156139e05760805193613fae575b5061030051517fdf0559ce000000000000000000000000000000000000000000000000000000008152602081600481855afa9081156139e05760805191613f8f575b506103005151917faa2bd882000000000000000000000000000000000000000000000000000000008352602083600481845afa9283156139e05760805193613f5b575b5061030051517f555d9bf9000000000000000000000000000000000000000000000000000000008152602081600481855afa9081156139e05760805191613f29575b506103005151937f1b743d0a000000000000000000000000000000000000000000000000000000008552602085600481865afa9485156139e05760805195613f08575b506103005151947f04e2ee4e000000000000000000000000000000000000000000000000000000008652602086600481875afa9384156139e05760049660805195613ee6575b506020906103005151978880927f8cf4abc90000000000000000000000000000000000000000000000000000000082525afa9586156139e05760805196613eb2575b506103005151948560e081011067ffffffffffffffff60e0880111176111d9578660c06001600160a01b03808080809e60e08d0161030051521695868c5216958660208c015287610300518c01528860608c0152169788610200518b015216978860a082015201526001600160a01b0319601f541617601f556001600160a01b031960205416176020556021556022556001600160a01b031960235416176023556001600160a01b03196024541617602455602555610120610220510151603355166001600160a01b031960385416176038556001600160a01b036060610240510151166001600160a01b0319601d541617601d556001600160a01b03610300516102405101511660a052610220515160c052602061022051015160e0526103005161022051015161010052606061022051015161012052610260515161014052610300516102605101516101605260606102605101516101805280516101a0526020810151906103005181015160608201519060a0610200518401519301519361030051516101c0526101c0516101e06101c051011067ffffffffffffffff6101e06101c0510111176111d9576101e06101c05101610300515260a0516101c0515260c05160206101c051015260e051610300516101c05101526101005160606101c051015261012051610200516101c05101526101405160a06101c05101526101605160c06101c05101526101805160e06101c05101526101a0516101006101c05101526101206101c05101526101406101c05101526101606101c05101526101806101c05101526101a06101c05101526084356101c08051015260a0516001600160a01b0319600954161760095560c051600a5560e051600b5561010051600c5561012051600d5561014051600e5561016051600f55610180516010556101a0515167ffffffffffffffff81116111d9576134a96011546142fb565b601f8111613e6a575b506020906001601f821114613dfe57809160805191613df0575b506000198260011b9260031b1c1916176011555b6101206101c0510151805167ffffffffffffffff81116111d9576135056012546142fb565b601f8111613da8575b506020916001601f831114613d415791819260805192613d36575b50506000198260011b9260031b1c1916176012555b6101406101c0510151805167ffffffffffffffff81116111d9576135636013546142fb565b601f8111613cee575b506020916001601f831114613c875791819260805192613c7c575b50506000198260011b9260031b1c1916176013555b6101606101c0510151805167ffffffffffffffff81116111d9576135c16014546142fb565b601f8111613c34575b506020916001601f831114613bcd5791819260805192613bc2575b50506000198260011b9260031b1c1916176014555b6101806101c0510151805167ffffffffffffffff81116111d95761361f6015546142fb565b601f8111613b7a575b506020916001601f831114613b135791819260805192613b08575b50506000198260011b9260031b1c1916176015555b6101a06101c0510151805167ffffffffffffffff81116111d95761367d6016546142fb565b601f8111613abc575b506020916001601f831114613a555791819260805192613a4a575b50506000198260011b9260031b1c1916176016555b6101c0805101516017556001600160a01b036101e051166001600160a01b031960185416176018556137136102005161022051015160a061022051015160c061022051015160e06102205101519161010061022051015193615acd565b6137296001600160a01b036102405151166159ae565b60206102605101516102a05151151560206102a0510151151591600855602d547fffffffffffffffffffffffffffffffffffffffffffffffffffffffffffff000060ff61ff008560081b16931691161717602d556001600160a01b036038541660206001600160a01b036018541660a46001600160a01b0360095416916001600160a01b03601d541694610300515195869485937f509f318c000000000000000000000000000000000000000000000000000000008552600485015260248401526044830152306064830152336084830152608051905af180156139e0576001600160a01b039160805191613a1b575b5016806001600160a01b0319603954161760395561030051519161383c836141d0565b600a548352600b5460208401526103005151613857816141d0565b600f548152601054602082015260ff602d541690833b1561032a576138b6906138ac6103005151967fa30442d700000000000000000000000000000000000000000000000000000000885260048801906159f5565b60448601906159f5565b151560848401526102c05160805160a485015b60058210613a05575050506101448301526102805160805161016484015b600382106139ef57505050816101c48160805193608051905af180156139e0576139ce575b506006805460ff191690556102c051516003556102e051610300511c60ff16156139365760805180f35b7fffffffffffffffffffffffffffffffffffffffffffffff00ffffffffffffffff7ff0c57e16840df040f15088dc2f81fe391c3923bec73e23a9662efc9c229c6a0054167ff0c57e16840df040f15088dc2f81fe391c3923bec73e23a9662efc9c229c6a00557fc7f505b2f371ae2175ee4913f4499e1f2633a7b5936321eed1cdaeb6115181d26020610300515160018152a1610caf565b6080516139da91614202565b8061390c565b61030051513d608051823e3d90fd5b60208060019285518152019301910190916138e7565b60208060019285518152019301910190916138c9565b613a3d915060203d602011613a43575b613a358183614202565b8101906146ef565b83613819565b503d613a2b565b0151905082806136a1565b601f198216926016608051528060805120916080515b858110613aa457508360019510613a8b575b505050811b016016556136b6565b015160001960f88460031b161c19169055828080613a7d565b91926020600181928685015181550194019201613a6b565b601660805152602060805120601f830160051c81019160208410613afe575b601f0160051c01905b818110613af15750613686565b6080518155600101613ae4565b9091508190613adb565b015190508280613643565b601f198216926015608051528060805120916080515b858110613b6257508360019510613b49575b505050811b01601555613658565b015160001960f88460031b161c19169055828080613b3b565b91926020600181928685015181550194019201613b29565b601560805152602060805120601f830160051c810160208410613bbb575b601f830160051c82018110613bae575050613628565b6080518155600101613b98565b5080613b98565b0151905082806135e5565b601f198216926014608051528060805120916080515b858110613c1c57508360019510613c03575b505050811b016014556135fa565b015160001960f88460031b161c19169055828080613bf5565b91926020600181928685015181550194019201613be3565b601460805152602060805120601f830160051c810160208410613c75575b601f830160051c82018110613c685750506135ca565b6080518155600101613c52565b5080613c52565b015190508280613587565b601f198216926013608051528060805120916080515b858110613cd657508360019510613cbd575b505050811b0160135561359c565b015160001960f88460031b161c19169055828080613caf565b91926020600181928685015181550194019201613c9d565b601360805152602060805120601f830160051c810160208410613d2f575b601f830160051c82018110613d2257505061356c565b6080518155600101613d0c565b5080613d0c565b015190508280613529565b601f198216926012608051528060805120916080515b858110613d9057508360019510613d77575b505050811b0160125561353e565b015160001960f88460031b161c19169055828080613d69565b91926020600181928685015181550194019201613d57565b601260805152602060805120601f830160051c810160208410613de9575b601f830160051c82018110613ddc57505061350e565b6080518155600101613dc6565b5080613dc6565b90506101a0510151826134cc565b601f198116916011608051528060805120906080515b848110613e4f57508260019410613e33575b5050811b016011556134e0565b6101a051015160001960f88460031b161c191690558280613e26565b9091602060018192856101a051015181550193019101613e14565b601160805152602060805120601f830160051c810160208410613eab575b601f830160051c82018110613e9e5750506134b2565b6080518155600101613e88565b5080613e88565b9095506020813d602011613ede575b81613ece60209383614202565b8101031261032a575194896131ea565b3d9150613ec1565b6020919550613f0190823d8411613a4357613a358183614202565b94906131a8565b613f2291955060203d602011613a4357613a358183614202565b9388613162565b90506020813d602011613f53575b81613f4460209383614202565b8101031261032a57518761311f565b3d9150613f37565b9092506020813d602011613f87575b81613f7760209383614202565b8101031261032a575191866130dd565b3d9150613f6a565b613fa8915060203d602011613a4357613a358183614202565b8561309a565b613fc891935060203d602011613a4357613a358183614202565b9184613058565b7ff9781eda00000000000000000000000000000000000000000000000000000000608051526113ec6004526024608051fd5b7f47200aef00000000000000000000000000000000000000000000000000000000608051526004608051fd5b680100000000000000017fffffffffffffffffffffffffffffffffffffffffffffff0000000000000000006102e05116177ff0c57e16840df040f15088dc2f81fe391c3923bec73e23a9662efc9c229c6a0055612fc3565b7ff92ee8a900000000000000000000000000000000000000000000000000000000608051526004608051fd5b90501583612f64565b303b159150612f5c565b6102e051610300511c60ff16159150612f52565b833567ffffffffffffffff811161032a576020916140fd839260043691870101614250565b815201930192612ef9565b8135801515810361032a57815260209182019101612ead565b8135815260209182019101612e6e565b8135815260209182019101612e31565b8135815260209182019101612df5565b8135815260209182019101612d9e565b81356001600160a01b038116810361032a57815260209182019101612d64565b3461032a57602060031936011261032a576020611cc461419f6141a4565b61442f565b600435906001600160a01b0382168203611a7357565b602435906001600160a01b0382168203611a7357565b6040810190811067ffffffffffffffff8211176141ec57604052565b634e487b7160e01b600052604160045260246000fd5b90601f601f19910116810190811067ffffffffffffffff8211176141ec57604052565b600435908115158203611a7357565b67ffffffffffffffff81116141ec57601f01601f191660200190565b81601f82011215611a735780359061426782614234565b926142756040519485614202565b82845260208383010111611a7357816000926020809301838601378301015290565b67ffffffffffffffff81116141ec5760051b60200190565b9291906142bb81614297565b936142c96040519586614202565b602085838152019160051b8101928311611a7357905b8282106142eb57505050565b81358152602091820191016142df565b90600182811c9216801561432b575b602083101461431557565b634e487b7160e01b600052602260045260246000fd5b91607f169161430a565b6040519060008260055491614349836142fb565b80835292600181169081156143cf575060011461436f575b61436d92500383614202565b565b506005600090815290917f036b6384b5eca791c62761152d0c79bb0604c104a5fb6f4eb0703f3154bb3db05b8183106143b357505090602061436d92820101614361565b602091935080600191548385890101520191019091849261439b565b6020925061436d94915060ff191682840152151560051b820101614361565b919082519283825260005b84811061441a575050601f19601f8460006020809697860101520116010190565b806020809284010151828286010152016143f9565b60206001600160a01b036024818354169360405194859384926370a0823160e01b84521660048301525afa9081156144a15760009161446f575b50151590565b90506020813d602011614499575b8161448a60209383614202565b81010312611a73575138614469565b3d915061447d565b6040513d6000823e3d90fd5b818102929181159184041417156144c057565b634e487b7160e01b600052601160045260246000fd5b919082039182116144c057565b604d81116144c057600a0a90565b81156144fb570490565b634e487b7160e01b600052601260045260246000fd5b601d546000906001600160a01b03168061459e575050475b80603b546012810361457e575b5050603a5490601282036145545761455191506017546144f1565b90565b60175491601203601281116144c05761455192614573614579926144e3565b906144ad565b6144f1565b6012908103925082116144c057614573614597926144e3565b3880614536565b6020602491604051928380926370a0823160e01b82523060048301525afa9182156146095780926145d1575b5050614529565b9091506020823d602011614601575b816145ed60209383614202565b810103126145fe57505138806145ca565b80fd5b3d91506145e0565b604051903d90823e3d90fd5b91906040517fffffffffffffffffffffffffffffffffffffffff000000000000000000000000602082019260601b16825260148152614655603482614202565b519020603254916000915b84518310156146a757614673838661573a565b51906000828210156146965750600052602052600160406000205b920191614660565b60409160019382526020522061468e565b915092501490565b90816020910312611a7357518015158103611a735790565b919082018092116144c057565b90816060910312611a73578051916040602083015192015190565b90816020910312611a7357516001600160a01b0381168103611a735790565b601954600090600b54811080159061572f575b156157075760ff600654166005811015806156f3576003821480156156e7575b6156bf576156ab5760041461568357600a5411615670576001600160a01b0360095416600a5415615655575b601d546001600160a01b031680159081156155f357475b80159081156155cc575b506155a457601954906127106147a6602154846144ad565b04603b54601203601281116153e9576147d46147cb61271093612b0f6147dd946144e3565b94600f546144ad565b602254906144ad565b04603a54601203601281116153e95786939291612b0f6147fc926144e3565b93156155825750818080926001600160a01b0360235416828215615579575bf115614f5f57614838905b6001600160a01b036023541683615a1d565b601d546001600160a01b031680159081156155155750475b8091156154de575b50600e54601054848060405161486f608082614202565b605981527f4354524143543a3a2035203a20737570706c794166746572466565733a20256460208201527f2c2073616c65496e666f2e6c697175696469747950657263656e742025642c7360408201527f616c65496e666f2e6465784c697374526174652020256420200000000000000060608201526040516149488161492860208201947fa7a878530000000000000000000000000000000000000000000000000000000086526080602484015260a48301906143ee565b89604483015288606483015287608483015203601f198101835282614202565b51906a636f6e736f6c652e6c6f675afa50604051916370a0823160e01b8352306004840152602083602481885afa9283156153ca5786936154a6575b50603a5460120392601284116153e957612710916149a86149ae92614573876144e3565b956144ad565b04926149ba82856144ad565b1161547e5790612b0f6149d06149d693856144ad565b916144e3565b60185460405163095ea7b360e01b81526001600160a01b0390911660048201526024810182905290919060208160448188885af19081156150ba5790600191869161545f575b50151503615437576001600160a01b0360185416926001600160a01b03601d54161560001461523e57506001600160a01b03600954166064420180421161522a57604051917ff305d719000000000000000000000000000000000000000000000000000000008352600483015283602483015285604483015282606483015230608483015260a482015260608160c48185885af180156150ba57908592916151fb575b507f7cd5ab40640401d656ba26a3b39a4ba340153acc6bcf268c2610b5801be8ef6160406001600160a01b0360185416926001600160a01b03600954169582519182526020820152a45b604051907fc45a0155000000000000000000000000000000000000000000000000000000008252602082600481845afa9182156151475783926151da575b506001600160a01b0360095416906001600160a01b03601d541680156000146151c257506020600491604051928380927fad5c46480000000000000000000000000000000000000000000000000000000082525afa908115614e86576020926001600160a01b0380959360449388916151a5575b50935b60405196879586947fe6a439050000000000000000000000000000000000000000000000000000000086526004860152166024840152165afa908115614f5f57906001600160a01b03918391615186575b507fffffffffffffffffffffff0000000000000000000000000000000000000000ff74ffffffffffffffffffffffffffffffffffffffff006006549260081b169116178060065560081c16604051906370a0823160e01b8252306004830152602082602481845afa918215615147578392615152575b5060206001600160a01b03603954169160e46001600160a01b0386541691866008549560405196879586947fc476b4850000000000000000000000000000000000000000000000000000000086526004860152602485015288604485015260648085015260848401528160a48401528160c48401525af190811561514757614d4092916001600160a01b03918591615128575b5016806001600160a01b031960075416176007556001600160a01b0360065460081c16615a1d565b601d546001600160a01b031680159081156150c55747915b60ff602d5460081c16614e91575b5050506001600160a01b03601d54168015600014614e0a57506001600160a01b038154164790814710614de2578280809381935af1614da3615d38565b5015614dba575b50600460ff196006541617600655565b807f6090361a0000000000000000000000000000000000000000000000000000000060049252fd5b6004837ff4d678b8000000000000000000000000000000000000000000000000000000008152fd5b6001600160a01b0382541690604051916370a0823160e01b8352306004840152602083602481855afa918215614e86578492614e50575b614e4b9350615a1d565b614daa565b91506020833d602011614e7e575b81614e6b60209383614202565b81010312611a7357614e4b925191614e41565b3d9150614e5e565b6040513d86823e3d90fd5b15614fa557506001600160a01b03603954166040517f67dba64b000000000000000000000000000000000000000000000000000000008152602081600481855afa908115614e86579083918591614f6e575b5061271091614ef1916144ad565b0491813b15614f6a57906024849260405194859384927fe7cb4bcb00000000000000000000000000000000000000000000000000000000845260048401525af18015614f5f57908291614f4a575b50505b388080614d66565b81614f5491614202565b6145fe578038614f3f565b6040513d84823e3d90fd5b8380fd5b9150506020813d602011614f9d575b81614f8a60209383614202565b81010312611a7357518290612710614ee3565b3d9150614f7d565b6001600160a01b03603954166040517f67dba64b000000000000000000000000000000000000000000000000000000008152602081600481855afa9081156150ba57908491869161507f575b5061500461500b949392612710926144ad565b0491615a1d565b6001600160a01b036039541690813b1561507b5782916024839260405194859384927fe7cb4bcb00000000000000000000000000000000000000000000000000000000845260048401525af18015614f5f57829061506b575b5050614f42565b61507491614202565b3881615064565b8280fd5b9150506020813d6020116150b2575b8161509b60209383614202565b810103126150ae57518390615004614ff1565b8480fd5b3d915061508e565b6040513d87823e3d90fd5b6040516370a0823160e01b8152306004820152602081602481855afa908115614e865784916150f6575b5091614d58565b90506020813d602011615120575b8161511160209383614202565b81010312614f6a5751386150ef565b3d9150615104565b615141915060203d602011613a4357613a358183614202565b38614d18565b6040513d85823e3d90fd5b9091506020813d60201161517e575b8161516e60209383614202565b8101031261507b57519038614c85565b3d9150615161565b61519f915060203d602011613a4357613a358183614202565b38614c0f565b6151bc9150863d8811613a4357613a358183614202565b38614bbb565b6001600160a01b039391506020928460449293614bbe565b6151f491925060203d602011613a4357613a358183614202565b9038614b47565b61521c9060603d606011615223575b6152148183614202565b8101906146d4565b5050614abf565b503d61520a565b602486634e487b7160e01b81526011600452fd5b919060405163095ea7b360e01b8152846004820152600019602482015260208160448189885af180156153ca5761541a575b508460206001600160a01b03601d541660446001600160a01b0360185416604051948593849263095ea7b360e01b8452600484015260001960248401525af180156153ca576153fd575b506001600160a01b03601d5416603b54601203601281116153e9576152e16152e7916144e3565b836144f1565b60644201908142116153d557604051927fe8e33700000000000000000000000000000000000000000000000000000000008452866004850152602484015284604484015260648301528660848301528660a48301523060c483015260e48201526060816101048189895af180156153ca576153ab575b507f7cd5ab40640401d656ba26a3b39a4ba340153acc6bcf268c2610b5801be8ef6160406001600160a01b0360185416926001600160a01b03601d54169482519182526020820152a4614b09565b6153c39060603d606011615223576152148183614202565b505061535d565b6040513d88823e3d90fd5b602488634e487b7160e01b81526011600452fd5b602487634e487b7160e01b81526011600452fd5b6154159060203d602011610a7057610a618183614202565b6152ba565b6154329060203d602011610a7057610a618183614202565b615270565b6004847f7d072847000000000000000000000000000000000000000000000000000000008152fd5b615478915060203d602011610a7057610a618183614202565b38614a1c565b6004857fc4961dd1000000000000000000000000000000000000000000000000000000008152fd5b9092506020813d6020116154d6575b816154c260209383614202565b810103126154d257519138614984565b8580fd5b3d91506154b5565b9050603b546012036012811161550157906145736154fb926144e3565b38614858565b602484634e487b7160e01b81526011600452fd5b6020602491604051928380926370a0823160e01b82523060048301525afa908115614e86578491615547575b50614850565b90506020813d602011615571575b8161556260209383614202565b81010312614f6a575138615541565b3d9150615555565b506108fc61481b565b6148389392509061559f916001600160a01b036023541690615a1d565b614826565b6004847f94a4e8f4000000000000000000000000000000000000000000000000000000008152fd5b9050601954603b54601203601281116153e95790612b0f6155ec926144e3565b113861478e565b6040516370a0823160e01b8152306004820152602081602481855afa9081156150ba578591615623575b50614784565b90506020813d60201161564d575b8161563e60209383614202565b810103126150ae57513861561d565b3d9150615631565b61565d614511565b601055615668614511565b600f5561476d565b5061436d600360ff196006541617600655565b6004827ff08d7fd2000000000000000000000000000000000000000000000000000000008152fd5b602483634e487b7160e01b81526021600452fd5b6004847f894d929f000000000000000000000000000000000000000000000000000000008152fd5b50508260028214614741565b602484634e487b7160e01b81526021600452fd5b6004827f1e77a2d7000000000000000000000000000000000000000000000000000000008152fd5b50600d544211614721565b805182101561574e5760209160051b010190565b634e487b7160e01b600052603260045260246000fd5b6001600160a01b0360245416906025549161577e83614297565b9161578c6040519384614202565b83835261579884614297565b90601f1960208501920136833783511561574e576001600160a01b03168152916157c184614297565b926157cf6040519485614202565b8484526157db85614297565b90601f1960208601920136833760005b86811061598157506040519485937f4e1273f40000000000000000000000000000000000000000000000000000000085526044850190604060048701525180915260648501929060005b81811061595f57505050602090600319858403016024860152519182815201919060005b8181106159465750505091818060009403915afa9081156144a1576000916158b6575b506000916000915b81831061589357505050151590565b9091926158ad6001916158a6868561573a565b51906146c7565b93019190615884565b3d8083833e6158c58183614202565b81019060208183031261507b5780519067ffffffffffffffff8211614f6a570181601f8201121561507b578051906158fc82614297565b9361590a6040519586614202565b82855260208086019360051b8301019384116145fe5750602001905b828210615936575050503861587c565b8151815260209182019101615926565b8251845286945060209384019390920191600101615859565b82516001600160a01b0316855288965060209485019490920191600101615835565b8080615993600193899596979961573a565b520194929190946157eb565b60001981146144c05760010190565b6001600160a01b0380600054921691826001600160a01b0319821617600055167f8be0079c531659141344cd1fd0a4f28419497f9722a3daafe3b4186f6b6457e0600080a3565b906000905b60028210615a0757505050565b60208060019285518152019301910190916159fa565b6040517fa9059cbb0000000000000000000000000000000000000000000000000000000060208201526001600160a01b0392909216602483015260448083019390935291815261436d91610c6c606483614202565b6001600160a01b03600054163303615a8657565b7f118cdaa7000000000000000000000000000000000000000000000000000000006000523360045260246000fd5b90816020910312611a73575160ff81168103611a735790565b600460206001600160a01b0360095416604051928380927f313ce5670000000000000000000000000000000000000000000000000000000082525afa80156144a15760ff91600091615cde575b5016603a556012603b556001600160a01b03601d541680615c62575b50600b546109c481028181046109c414821517156144c05761271090048210615c3357808211615c09578211615bdf578315615bb5578415615b8b5780602a55602b55602c55602e5580602f55603055603155565b7f3dd55d8f0000000000000000000000000000000000000000000000000000000060005260046000fd5b7f53c703b10000000000000000000000000000000000000000000000000000000060005260046000fd5b7fa6b78c230000000000000000000000000000000000000000000000000000000060005260046000fd5b7ff2e3f3740000000000000000000000000000000000000000000000000000000060005260046000fd5b7f84cc2e1d00000000000000000000000000000000000000000000000000000000600052601960045260246000fd5b6020600491604051928380927f313ce5670000000000000000000000000000000000000000000000000000000082525afa80156144a15760ff91600091615caf575b5016603b5538615b36565b615cd1915060203d602011615cd7575b615cc98183614202565b810190615ab4565b38615ca4565b503d615cbf565b615cf7915060203d602011615cd757615cc98183614202565b38615b1a565b600260015414615d0e576002600155565b7f3ee5aeb50000000000000000000000000000000000000000000000000000000060005260046000fd5b3d15615d63573d90615d4982614234565b91615d576040519384614202565b82523d6000602084013e565b606090565b6000806001600160a01b03615d9293169360208151910182865af1615d8b615d38565b9083615df0565b8051908115159182615dd5575b5050615da85750565b7f5274afe70000000000000000000000000000000000000000000000000000000060005260045260246000fd5b615de892506020809183010191016146af565b153880615d9f565b90615e2f5750805115615e0557805190602001fd5b7f1425ea420000000000000000000000000000000000000000000000000000000060005260046000fd5b81511580615e77575b615e40575090565b6001600160a01b03907f9996b315000000000000000000000000000000000000000000000000000000006000521660045260246000fd5b50803b15615e3856fea2646970667358221220a8b572795084cb20d387c127aafb5cc34b64083b7f51a330edbf553bf42daea364736f6c634300081c0033",
  "devdoc": {
    "errors": {
      "AddressEmptyCode(address)": [
        {
          "details": "There's no code at `target` (it is not a contract)."
        }
      ],
      "AddressInsufficientBalance(address)": [
        {
          "details": "The ETH balance of the account is not enough to perform the operation."
        }
      ],
      "FailedInnerCall()": [
        {
          "details": "A call to an address target failed. The target may have reverted."
        }
      ],
      "InvalidInitialization()": [
        {
          "details": "The contract is already initialized."
        }
      ],
      "NotInitializing()": [
        {
          "details": "The contract is not initializing."
        }
      ],
      "OwnableInvalidOwner(address)": [
        {
          "details": "The owner is not a valid owner account. (eg. `address(0)`)"
        }
      ],
      "OwnableUnauthorizedAccount(address)": [
        {
          "details": "The caller account is not authorized to perform an operation."
        }
      ],
      "ReentrancyGuardReentrantCall()": [
        {
          "details": "Unauthorized reentrant call."
        }
      ],
      "SafeERC20FailedOperation(address)": [
        {
          "details": "An operation with an ERC20 token failed."
        }
      ]
    },
    "events": {
      "Initialized(uint64)": {
        "details": "Triggered when the contract has been initialized or reinitialized."
      }
    },
    "kind": "dev",
    "methods": {
      "constructor": {
        "custom:oz-upgrades-unsafe-allow": "constructor"
      },
      "owner()": {
        "details": "Returns the address of the current owner."
      },
      "renounceOwnership()": {
        "details": "Leaves the contract without owner. It will not be possible to call `onlyOwner` functions. Can only be called by the current owner. NOTE: Renouncing ownership will leave the contract without an owner, thereby disabling any functionality that is only available to the owner."
      },
      "transferOwnership(address)": {
        "details": "Transfers ownership of the contract to a new account (`newOwner`). Can only be called by the current owner."
      },
      "withdrawFunds()": {
        "details": "Withdraw tokens or coin by user after end time If this project does not reach softcap, return their funds otherwise get tokens "
      },
      "withdrawOwnerTokens()": {
        "details": "Withdraw owner tokens If this project does not reach softcap"
      }
    },
    "version": 1
  },
  "userdoc": {
    "kind": "user",
    "methods": {
      "constructor": {
        "notice": "Do not leave an implementation contract uninitialized. An uninitialized implementation contract can be taken over by an attacker, which may impact the proxy.  To prevent the implementation contract from being used, you should invoke the _disableInitializers function in the constructor to automatically lock it when it is deployed"
      },
      "finalizeAndSetupLiquidity()": {
        "notice": "Setup liquidity and transfer all amounts according to defined percents, if softcap not reached set Refunded flag"
      }
    },
    "version": 1
  },
  "storageLayout": {
    "storage": [
      {
        "astId": 8,
        "contract": "contracts/Campaign.sol:Campaign",
        "label": "_owner",
        "offset": 0,
        "slot": "0",
        "type": "t_address"
      },
      {
        "astId": 1333,
        "contract": "contracts/Campaign.sol:Campaign",
        "label": "_status",
        "offset": 0,
        "slot": "1",
        "type": "t_uint256"
      },
      {
        "astId": 3803,
        "contract": "contracts/Campaign.sol:Campaign",
        "label": "useWhiteList",
        "offset": 0,
        "slot": "2",
        "type": "t_bool"
      },
      {
        "astId": 3805,
        "contract": "contracts/Campaign.sol:Campaign",
        "label": "hasKYC",
        "offset": 1,
        "slot": "2",
        "type": "t_bool"
      },
      {
        "astId": 3808,
        "contract": "contracts/Campaign.sol:Campaign",
        "label": "totalTeamTokensToBeVested",
        "offset": 0,
        "slot": "3",
        "type": "t_uint256"
      },
      {
        "astId": 3810,
        "contract": "contracts/Campaign.sol:Campaign",
        "label": "_isAudited",
        "offset": 0,
        "slot": "4",
        "type": "t_bool"
      },
      {
        "astId": 3812,
        "contract": "contracts/Campaign.sol:Campaign",
        "label": "auditUrl",
        "offset": 0,
        "slot": "5",
        "type": "t_string_storage"
      },
      {
        "astId": 3817,
        "contract": "contracts/Campaign.sol:Campaign",
        "label": "status",
        "offset": 0,
        "slot": "6",
        "type": "t_enum(CampaignStatus)3801"
      },
      {
        "astId": 3819,
        "contract": "contracts/Campaign.sol:Campaign",
        "label": "liquidityPairAddress",
        "offset": 1,
        "slot": "6",
        "type": "t_address"
      },
      {
        "astId": 3821,
        "contract": "contracts/Campaign.sol:Campaign",
        "label": "liquidityPairLockerAddress",
        "offset": 0,
        "slot": "7",
        "type": "t_address"
      },
      {
        "astId": 3823,
        "contract": "contracts/Campaign.sol:Campaign",
        "label": "liquidityReleaseInDays",
        "offset": 0,
        "slot": "8",
        "type": "t_uint256"
      },
      {
        "astId": 3826,
        "contract": "contracts/Campaign.sol:Campaign",
        "label": "saleInfo",
        "offset": 0,
        "slot": "9",
        "type": "t_struct(CampaignSaleInfo)3795_storage"
      },
      {
        "astId": 3828,
        "contract": "contracts/Campaign.sol:Campaign",
        "label": "dexRouterAddress",
        "offset": 0,
        "slot": "24",
        "type": "t_address"
      },
      {
        "astId": 3830,
        "contract": "contracts/Campaign.sol:Campaign",
        "label": "totalCoinReceived",
        "offset": 0,
        "slot": "25",
        "type": "t_uint256"
      },
      {
        "astId": 3832,
        "contract": "contracts/Campaign.sol:Campaign",
        "label": "totalCoinInTierZero",
        "offset": 0,
        "slot": "26",
        "type": "t_uint256"
      },
      {
        "astId": 3834,
        "contract": "contracts/Campaign.sol:Campaign",
        "label": "totalCoinInTierOne",
        "offset": 0,
        "slot": "27",
        "type": "t_uint256"
      },
      {
        "astId": 3836,
        "contract": "contracts/Campaign.sol:Campaign",
        "label": "totalCoinInTierTwo",
        "offset": 0,
        "slot": "28",
        "type": "t_uint256"
      },
      {
        "astId": 3842,
        "contract": "contracts/Campaign.sol:Campaign",
        "label": "purchaseTokenAddress",
        "offset": 0,
        "slot": "29",
        "type": "t_address"
      },
      {
        "astId": 3844,
        "contract": "contracts/Campaign.sol:Campaign",
        "label": "totalParticipants",
        "offset": 0,
        "slot": "30",
        "type": "t_uint256"
      },
      {
        "astId": 3847,
        "contract": "contracts/Campaign.sol:Campaign",
        "label": "zsalesPlatformDetails",
        "offset": 0,
        "slot": "31",
        "type": "t_struct(PlatFormDetails)3705_storage"
      },
      {
        "astId": 3849,
        "contract": "contracts/Campaign.sol:Campaign",
        "label": "_campaignFactoryAddress",
        "offset": 0,
        "slot": "38",
        "type": "t_address"
      },
      {
        "astId": 3852,
        "contract": "contracts/Campaign.sol:Campaign",
        "label": "tier1TimeLineInHours",
        "offset": 0,
        "slot": "39",
        "type": "t_uint256"
      },
      {
        "astId": 3855,
        "contract": "contracts/Campaign.sol:Campaign",
        "label": "tier0TimeLineInHours",
        "offset": 0,
        "slot": "40",
        "type": "t_uint256"
      },
      {
        "astId": 3858,
        "contract": "contracts/Campaign.sol:Campaign",
        "label": "ownerHasWithdrawnTokens",
        "offset": 0,
        "slot": "41",
        "type": "t_bool"
      },
      {
        "astId": 3860,
        "contract": "contracts/Campaign.sol:Campaign",
        "label": "tierZerohardCap",
        "offset": 0,
        "slot": "42",
        "type": "t_uint256"
      },
      {
        "astId": 3862,
        "contract": "contracts/Campaign.sol:Campaign",
        "label": "tierOnehardCap",
        "offset": 0,
        "slot": "43",
        "type": "t_uint256"
      },
      {
        "astId": 3864,
        "contract": "contracts/Campaign.sol:Campaign",
        "label": "tierTwohardCap",
        "offset": 0,
        "slot": "44",
        "type": "t_uint256"
      },
      {
        "astId": 3866,
        "contract": "contracts/Campaign.sol:Campaign",
        "label": "useTokenVesting",
        "offset": 0,
        "slot": "45",
        "type": "t_bool"
      },
      {
        "astId": 3868,
        "contract": "contracts/Campaign.sol:Campaign",
        "label": "useRaisedFundsVesting",
        "offset": 1,
        "slot": "45",
        "type": "t_bool"
      },
      {
        "astId": 3870,
        "contract": "contracts/Campaign.sol:Campaign",
        "label": "minAllocationPerUser",
        "offset": 0,
        "slot": "46",
        "type": "t_uint256"
      },
      {
        "astId": 3872,
        "contract": "contracts/Campaign.sol:Campaign",
        "label": "maxAllocationPerUserTierZero",
        "offset": 0,
        "slot": "47",
        "type": "t_uint256"
      },
      {
        "astId": 3874,
        "contract": "contracts/Campaign.sol:Campaign",
        "label": "maxAllocationPerUserTierOne",
        "offset": 0,
        "slot": "48",
        "type": "t_uint256"
      },
      {
        "astId": 3876,
        "contract": "contracts/Campaign.sol:Campaign",
        "label": "maxAllocationPerUserTierTwo",
        "offset": 0,
        "slot": "49",
        "type": "t_uint256"
      },
      {
        "astId": 3878,
        "contract": "contracts/Campaign.sol:Campaign",
        "label": "_whitelistTierTwoMerkleRoot",
        "offset": 0,
        "slot": "50",
        "type": "t_bytes32"
      },
      {
        "astId": 3880,
        "contract": "contracts/Campaign.sol:Campaign",
        "label": "campaignKey",
        "offset": 0,
        "slot": "51",
        "type": "t_uint256"
      },
      {
        "astId": 3884,
        "contract": "contracts/Campaign.sol:Campaign",
        "label": "buyInZeroTier",
        "offset": 0,
        "slot": "52",
        "type": "t_mapping(t_address,t_uint256)"
      },
      {
        "astId": 3888,
        "contract": "contracts/Campaign.sol:Campaign",
        "label": "buyInOneTier",
        "offset": 0,
        "slot": "53",
        "type": "t_mapping(t_address,t_uint256)"
      },
      {
        "astId": 3892,
        "contract": "contracts/Campaign.sol:Campaign",
        "label": "buyInTwoTier",
        "offset": 0,
        "slot": "54",
        "type": "t_mapping(t_address,t_uint256)"
      },
      {
        "astId": 3896,
        "contract": "contracts/Campaign.sol:Campaign",
        "label": "buyInAllTiers",
        "offset": 0,
        "slot": "55",
        "type": "t_mapping(t_address,t_uint256)"
      },
      {
        "astId": 3899,
        "contract": "contracts/Campaign.sol:Campaign",
        "label": "_dexLockerFactory",
        "offset": 0,
        "slot": "56",
        "type": "t_contract(DexLockerFactory)8858"
      },
      {
        "astId": 3902,
        "contract": "contracts/Campaign.sol:Campaign",
        "label": "_dexLocker",
        "offset": 0,
        "slot": "57",
        "type": "t_contract(IDexLocker)8227"
      },
      {
        "astId": 3904,
        "contract": "contracts/Campaign.sol:Campaign",
        "label": "tokenDecimals",
        "offset": 0,
        "slot": "58",
        "type": "t_uint256"
      },
      {
        "astId": 3906,
        "contract": "contracts/Campaign.sol:Campaign",
        "label": "purchaseCoinDecimals",
        "offset": 0,
        "slot": "59",
        "type": "t_uint256"
      }
    ],
    "types": {
      "t_address": {
        "encoding": "inplace",
        "label": "address",
        "numberOfBytes": "20"
      },
      "t_bool": {
        "encoding": "inplace",
        "label": "bool",
        "numberOfBytes": "1"
      },
      "t_bytes32": {
        "encoding": "inplace",
        "label": "bytes32",
        "numberOfBytes": "32"
      },
      "t_contract(DexLockerFactory)8858": {
        "encoding": "inplace",
        "label": "contract DexLockerFactory",
        "numberOfBytes": "20"
      },
      "t_contract(IDexLocker)8227": {
        "encoding": "inplace",
        "label": "contract IDexLocker",
        "numberOfBytes": "20"
      },
      "t_enum(CampaignStatus)3801": {
        "encoding": "inplace",
        "label": "enum Campaign.CampaignStatus",
        "numberOfBytes": "1"
      },
      "t_mapping(t_address,t_uint256)": {
        "encoding": "mapping",
        "key": "t_address",
        "label": "mapping(address => uint256)",
        "numberOfBytes": "32",
        "value": "t_uint256"
      },
      "t_string_storage": {
        "encoding": "bytes",
        "label": "string",
        "numberOfBytes": "32"
      },
      "t_struct(CampaignSaleInfo)3795_storage": {
        "encoding": "inplace",
        "label": "struct Campaign.CampaignSaleInfo",
        "members": [
          {
            "astId": 3766,
            "contract": "contracts/Campaign.sol:Campaign",
            "label": "tokenAddress",
            "offset": 0,
            "slot": "0",
            "type": "t_address"
          },
          {
            "astId": 3768,
            "contract": "contracts/Campaign.sol:Campaign",
            "label": "softCap",
            "offset": 0,
            "slot": "1",
            "type": "t_uint256"
          },
          {
            "astId": 3770,
            "contract": "contracts/Campaign.sol:Campaign",
            "label": "hardCap",
            "offset": 0,
            "slot": "2",
            "type": "t_uint256"
          },
          {
            "astId": 3772,
            "contract": "contracts/Campaign.sol:Campaign",
            "label": "saleStartTime",
            "offset": 0,
            "slot": "3",
            "type": "t_uint256"
          },
          {
            "astId": 3774,
            "contract": "contracts/Campaign.sol:Campaign",
            "label": "saleEndTime",
            "offset": 0,
            "slot": "4",
            "type": "t_uint256"
          },
          {
            "astId": 3776,
            "contract": "contracts/Campaign.sol:Campaign",
            "label": "liquidityPercent",
            "offset": 0,
            "slot": "5",
            "type": "t_uint256"
          },
          {
            "astId": 3778,
            "contract": "contracts/Campaign.sol:Campaign",
            "label": "listRate",
            "offset": 0,
            "slot": "6",
            "type": "t_uint256"
          },
          {
            "astId": 3780,
            "contract": "contracts/Campaign.sol:Campaign",
            "label": "dexListRate",
            "offset": 0,
            "slot": "7",
            "type": "t_uint256"
          },
          {
            "astId": 3782,
            "contract": "contracts/Campaign.sol:Campaign",
            "label": "logoUrl",
            "offset": 0,
            "slot": "8",
            "type": "t_string_storage"
          },
          {
            "astId": 3784,
            "contract": "contracts/Campaign.sol:Campaign",
            "label": "desc",
            "offset": 0,
            "slot": "9",
            "type": "t_string_storage"
          },
          {
            "astId": 3786,
            "contract": "contracts/Campaign.sol:Campaign",
            "label": "website",
            "offset": 0,
            "slot": "10",
            "type": "t_string_storage"
          },
          {
            "astId": 3788,
            "contract": "contracts/Campaign.sol:Campaign",
            "label": "twitter",
            "offset": 0,
            "slot": "11",
            "type": "t_string_storage"
          },
          {
            "astId": 3790,
            "contract": "contracts/Campaign.sol:Campaign",
            "label": "telegram",
            "offset": 0,
            "slot": "12",
            "type": "t_string_storage"
          },
          {
            "astId": 3792,
            "contract": "contracts/Campaign.sol:Campaign",
            "label": "discord",
            "offset": 0,
            "slot": "13",
            "type": "t_string_storage"
          },
          {
            "astId": 3794,
            "contract": "contracts/Campaign.sol:Campaign",
            "label": "tokensOnSale",
            "offset": 0,
            "slot": "14",
            "type": "t_uint256"
          }
        ],
        "numberOfBytes": "480"
      },
      "t_struct(PlatFormDetails)3705_storage": {
        "encoding": "inplace",
        "label": "struct PlatFormDetails",
        "members": [
          {
            "astId": 3692,
            "contract": "contracts/Campaign.sol:Campaign",
            "label": "admin",
            "offset": 0,
            "slot": "0",
            "type": "t_address"
          },
          {
            "astId": 3694,
            "contract": "contracts/Campaign.sol:Campaign",
            "label": "zsalesTokenAddress",
            "offset": 0,
            "slot": "1",
            "type": "t_address"
          },
          {
            "astId": 3696,
            "contract": "contracts/Campaign.sol:Campaign",
            "label": "zsaleFee",
            "offset": 0,
            "slot": "2",
            "type": "t_uint256"
          },
          {
            "astId": 3698,
            "contract": "contracts/Campaign.sol:Campaign",
            "label": "zsaleTokenFee",
            "offset": 0,
            "slot": "3",
            "type": "t_uint256"
          },
          {
            "astId": 3700,
            "contract": "contracts/Campaign.sol:Campaign",
            "label": "zsalesWalletAddress",
            "offset": 0,
            "slot": "4",
            "type": "t_address"
          },
          {
            "astId": 3702,
            "contract": "contracts/Campaign.sol:Campaign",
            "label": "zsalesNFTTokenAddress",
            "offset": 0,
            "slot": "5",
            "type": "t_address"
          },
          {
            "astId": 3704,
            "contract": "contracts/Campaign.sol:Campaign",
            "label": "maxTiersToCheckForNFT",
            "offset": 0,
            "slot": "6",
            "type": "t_uint256"
          }
        ],
        "numberOfBytes": "224"
      },
      "t_uint256": {
        "encoding": "inplace",
        "label": "uint256",
        "numberOfBytes": "32"
      }
    }
  }
}