{
  "address": "0xF4894d248DeE9ffc0aD81113b42677f07c2CAc62",
  "abi": [
    {
      "inputs": [
        {
          "internalType": "contract DexLockerFactory",
          "name": "dexLockerFactory",
          "type": "address"
        },
        {
          "internalType": "address",
          "name": "zsalesToken",
          "type": "address"
        },
        {
          "internalType": "address",
          "name": "zsalesNFTToken",
          "type": "address"
        },
        {
          "internalType": "address",
          "name": "campaignImplementationAddress",
          "type": "address"
        }
      ],
      "stateMutability": "nonpayable",
      "type": "constructor"
    },
    {
      "inputs": [
        {
          "internalType": "address",
          "name": "target",
          "type": "address"
        }
      ],
      "name": "AddressEmptyCode",
      "type": "error"
    },
    {
      "inputs": [
        {
          "internalType": "address",
          "name": "account",
          "type": "address"
        }
      ],
      "name": "AddressInsufficientBalance",
      "type": "error"
    },
    {
      "inputs": [],
      "name": "ERC1167FailedCreateClone",
      "type": "error"
    },
    {
      "inputs": [],
      "name": "ExistingCampaign",
      "type": "error"
    },
    {
      "inputs": [],
      "name": "FailedInnerCall",
      "type": "error"
    },
    {
      "inputs": [],
      "name": "HardCapGreaterThanX4OfSoftCap",
      "type": "error"
    },
    {
      "inputs": [],
      "name": "NoCampaignCreatePrice",
      "type": "error"
    },
    {
      "inputs": [
        {
          "internalType": "uint256",
          "name": "balance",
          "type": "uint256"
        }
      ],
      "name": "NotEnoughBalance",
      "type": "error"
    },
    {
      "inputs": [],
      "name": "OnlyDecimals18AndBelow",
      "type": "error"
    },
    {
      "inputs": [
        {
          "internalType": "address",
          "name": "owner",
          "type": "address"
        }
      ],
      "name": "OwnableInvalidOwner",
      "type": "error"
    },
    {
      "inputs": [
        {
          "internalType": "address",
          "name": "account",
          "type": "address"
        }
      ],
      "name": "OwnableUnauthorizedAccount",
      "type": "error"
    },
    {
      "inputs": [],
      "name": "RequiresTokenContract",
      "type": "error"
    },
    {
      "inputs": [
        {
          "internalType": "address",
          "name": "token",
          "type": "address"
        }
      ],
      "name": "SafeERC20FailedOperation",
      "type": "error"
    },
    {
      "inputs": [],
      "name": "TokensOnSaleRequired",
      "type": "error"
    },
    {
      "anonymous": false,
      "inputs": [
        {
          "indexed": true,
          "internalType": "address",
          "name": "creator",
          "type": "address"
        },
        {
          "indexed": true,
          "internalType": "uint256",
          "name": "index",
          "type": "uint256"
        },
        {
          "indexed": false,
          "internalType": "address",
          "name": "createdCampaignAddress",
          "type": "address"
        }
      ],
      "name": "CampaignCreated",
      "type": "event"
    },
    {
      "anonymous": false,
      "inputs": [
        {
          "indexed": true,
          "internalType": "address",
          "name": "previousOwner",
          "type": "address"
        },
        {
          "indexed": true,
          "internalType": "address",
          "name": "newOwner",
          "type": "address"
        }
      ],
      "name": "OwnershipTransferred",
      "type": "event"
    },
    {
      "inputs": [
        {
          "internalType": "address",
          "name": "",
          "type": "address"
        }
      ],
      "name": "_tokenCampaigns",
      "outputs": [
        {
          "internalType": "address payable",
          "name": "",
          "type": "address"
        }
      ],
      "stateMutability": "view",
      "type": "function"
    },
    {
      "inputs": [
        {
          "internalType": "address",
          "name": "owner",
          "type": "address"
        },
        {
          "internalType": "uint256",
          "name": "start",
          "type": "uint256"
        },
        {
          "internalType": "uint256",
          "name": "offset",
          "type": "uint256"
        }
      ],
      "name": "allOwnersCampaigns",
      "outputs": [
        {
          "internalType": "uint256[]",
          "name": "",
          "type": "uint256[]"
        }
      ],
      "stateMutability": "view",
      "type": "function"
    },
    {
      "inputs": [
        {
          "internalType": "uint256",
          "name": "start",
          "type": "uint256"
        },
        {
          "internalType": "uint256",
          "name": "offset",
          "type": "uint256"
        }
      ],
      "name": "allOwnersCampaigns",
      "outputs": [
        {
          "internalType": "uint256[]",
          "name": "",
          "type": "uint256[]"
        }
      ],
      "stateMutability": "view",
      "type": "function"
    },
    {
      "inputs": [],
      "name": "allOwnersCampaignsSize",
      "outputs": [
        {
          "internalType": "uint256",
          "name": "",
          "type": "uint256"
        }
      ],
      "stateMutability": "view",
      "type": "function"
    },
    {
      "inputs": [
        {
          "internalType": "address",
          "name": "owner",
          "type": "address"
        }
      ],
      "name": "allOwnersCampaignsSize",
      "outputs": [
        {
          "internalType": "uint256",
          "name": "",
          "type": "uint256"
        }
      ],
      "stateMutability": "view",
      "type": "function"
    },
    {
      "inputs": [
        {
          "internalType": "uint256",
          "name": "index",
          "type": "uint256"
        }
      ],
      "name": "campaignAt",
      "outputs": [
        {
          "internalType": "uint256",
          "name": "key",
          "type": "uint256"
        },
        {
          "internalType": "address",
          "name": "value",
          "type": "address"
        }
      ],
      "stateMutability": "view",
      "type": "function"
    },
    {
      "inputs": [],
      "name": "campaignCreationPrice",
      "outputs": [
        {
          "internalType": "uint256",
          "name": "",
          "type": "uint256"
        }
      ],
      "stateMutability": "view",
      "type": "function"
    },
    {
      "inputs": [],
      "name": "campaignSize",
      "outputs": [
        {
          "internalType": "uint256",
          "name": "",
          "type": "uint256"
        }
      ],
      "stateMutability": "view",
      "type": "function"
    },
    {
      "inputs": [
        {
          "internalType": "address",
          "name": "",
          "type": "address"
        }
      ],
      "name": "campaignTokensLocked",
      "outputs": [
        {
          "internalType": "uint256",
          "name": "",
          "type": "uint256"
        }
      ],
      "stateMutability": "view",
      "type": "function"
    },
    {
      "inputs": [
        {
          "internalType": "uint256",
          "name": "key",
          "type": "uint256"
        }
      ],
      "name": "contains",
      "outputs": [
        {
          "internalType": "bool",
          "name": "",
          "type": "bool"
        }
      ],
      "stateMutability": "view",
      "type": "function"
    },
    {
      "inputs": [
        {
          "internalType": "address",
          "name": "_tokenAddress",
          "type": "address"
        },
        {
          "internalType": "address",
          "name": "_purchaseTokenAddress",
          "type": "address"
        },
        {
          "internalType": "uint256",
          "name": "tokensOnSale",
          "type": "uint256"
        },
        {
          "internalType": "uint256[6]",
          "name": "_capAndDate",
          "type": "uint256[6]"
        },
        {
          "internalType": "address",
          "name": "_dexRouterAddress",
          "type": "address"
        },
        {
          "internalType": "uint256[4]",
          "name": "liquidityAllocationAndRates",
          "type": "uint256[4]"
        },
        {
          "internalType": "string[6]",
          "name": "founderInfo",
          "type": "string[6]"
        },
        {
          "internalType": "bool[2]",
          "name": "_useTokenOrRaisedFundsVesting",
          "type": "bool[2]"
        },
        {
          "internalType": "uint256[5]",
          "name": "teamTokenVestingDetails",
          "type": "uint256[5]"
        },
        {
          "internalType": "uint256[3]",
          "name": "raisedFundVestingDetails",
          "type": "uint256[3]"
        }
      ],
      "name": "createNewCampaign",
      "outputs": [],
      "stateMutability": "payable",
      "type": "function"
    },
    {
      "inputs": [
        {
          "internalType": "uint256[6]",
          "name": "_capAndDate",
          "type": "uint256[6]"
        }
      ],
      "name": "getCampaignValues",
      "outputs": [
        {
          "internalType": "uint256[10]",
          "name": "capAndDate",
          "type": "uint256[10]"
        }
      ],
      "stateMutability": "pure",
      "type": "function"
    },
    {
      "inputs": [
        {
          "internalType": "uint256",
          "name": "tier",
          "type": "uint256"
        }
      ],
      "name": "getTierStatus",
      "outputs": [
        {
          "internalType": "bool",
          "name": "",
          "type": "bool"
        }
      ],
      "stateMutability": "view",
      "type": "function"
    },
    {
      "inputs": [
        {
          "internalType": "address",
          "name": "_tokenAddress",
          "type": "address"
        }
      ],
      "name": "hasExistingCampaign",
      "outputs": [
        {
          "internalType": "bool",
          "name": "",
          "type": "bool"
        }
      ],
      "stateMutability": "view",
      "type": "function"
    },
    {
      "inputs": [],
      "name": "maxTiersToCheckForNFT",
      "outputs": [
        {
          "internalType": "uint256",
          "name": "",
          "type": "uint256"
        }
      ],
      "stateMutability": "view",
      "type": "function"
    },
    {
      "inputs": [
        {
          "internalType": "uint256",
          "name": "tokenAmount",
          "type": "uint256"
        },
        {
          "internalType": "uint256",
          "name": "tokenDecimals",
          "type": "uint256"
        }
      ],
      "name": "normalizeTokenAmount",
      "outputs": [
        {
          "internalType": "uint256",
          "name": "",
          "type": "uint256"
        }
      ],
      "stateMutability": "pure",
      "type": "function"
    },
    {
      "inputs": [],
      "name": "owner",
      "outputs": [
        {
          "internalType": "address",
          "name": "",
          "type": "address"
        }
      ],
      "stateMutability": "view",
      "type": "function"
    },
    {
      "inputs": [],
      "name": "renounceOwnership",
      "outputs": [],
      "stateMutability": "nonpayable",
      "type": "function"
    },
    {
      "inputs": [
        {
          "internalType": "address",
          "name": "newAdmin",
          "type": "address"
        }
      ],
      "name": "setAdmin",
      "outputs": [],
      "stateMutability": "nonpayable",
      "type": "function"
    },
    {
      "inputs": [
        {
          "internalType": "uint256",
          "name": "newPrice",
          "type": "uint256"
        }
      ],
      "name": "setCampaignCreationPrice",
      "outputs": [],
      "stateMutability": "nonpayable",
      "type": "function"
    },
    {
      "inputs": [
        {
          "internalType": "uint256",
          "name": "saleFee",
          "type": "uint256"
        },
        {
          "internalType": "uint256",
          "name": "saleTokenFee",
          "type": "uint256"
        }
      ],
      "name": "setCampaignFee",
      "outputs": [],
      "stateMutability": "nonpayable",
      "type": "function"
    },
    {
      "inputs": [
        {
          "internalType": "address",
          "name": "campaignImplementationAddress",
          "type": "address"
        }
      ],
      "name": "setCampaignImplementation",
      "outputs": [],
      "stateMutability": "nonpayable",
      "type": "function"
    },
    {
      "inputs": [
        {
          "internalType": "address",
          "name": "salesWalletAddress",
          "type": "address"
        }
      ],
      "name": "setFeeWallet",
      "outputs": [],
      "stateMutability": "nonpayable",
      "type": "function"
    },
    {
      "inputs": [
        {
          "internalType": "uint256",
          "name": "tier",
          "type": "uint256"
        },
        {
          "internalType": "bool",
          "name": "status",
          "type": "bool"
        }
      ],
      "name": "setTierStatus",
      "outputs": [],
      "stateMutability": "nonpayable",
      "type": "function"
    },
    {
      "inputs": [
        {
          "internalType": "uint256",
          "name": "newMax",
          "type": "uint256"
        }
      ],
      "name": "setZSalesMaxTiersToCheckForNFT",
      "outputs": [],
      "stateMutability": "nonpayable",
      "type": "function"
    },
    {
      "inputs": [
        {
          "internalType": "address",
          "name": "newAddress",
          "type": "address"
        }
      ],
      "name": "setZSalesNFTTokenAddress",
      "outputs": [],
      "stateMutability": "nonpayable",
      "type": "function"
    },
    {
      "inputs": [
        {
          "internalType": "address",
          "name": "newAddress",
          "type": "address"
        }
      ],
      "name": "setZSalesTokenAddress",
      "outputs": [],
      "stateMutability": "nonpayable",
      "type": "function"
    },
    {
      "inputs": [
        {
          "internalType": "address",
          "name": "newOwner",
          "type": "address"
        }
      ],
      "name": "transferOwnership",
      "outputs": [],
      "stateMutability": "nonpayable",
      "type": "function"
    },
    {
      "inputs": [
        {
          "internalType": "uint256",
          "name": "key",
          "type": "uint256"
        }
      ],
      "name": "tryGetCampaignByKey",
      "outputs": [
        {
          "internalType": "bool",
          "name": "",
          "type": "bool"
        },
        {
          "internalType": "address",
          "name": "",
          "type": "address"
        }
      ],
      "stateMutability": "view",
      "type": "function"
    },
    {
      "inputs": [
        {
          "internalType": "address",
          "name": "_tokenAddress",
          "type": "address"
        }
      ],
      "name": "tryGetCampaignByTokenAddress",
      "outputs": [
        {
          "internalType": "address",
          "name": "",
          "type": "address"
        }
      ],
      "stateMutability": "view",
      "type": "function"
    },
    {
      "inputs": [],
      "name": "turnstileAddress",
      "outputs": [
        {
          "internalType": "address",
          "name": "",
          "type": "address"
        }
      ],
      "stateMutability": "view",
      "type": "function"
    },
    {
      "inputs": [
        {
          "internalType": "address",
          "name": "newAddress",
          "type": "address"
        }
      ],
      "name": "updateTurnstileAddress",
      "outputs": [],
      "stateMutability": "nonpayable",
      "type": "function"
    },
    {
      "inputs": [
        {
          "internalType": "address",
          "name": "to",
          "type": "address"
        },
        {
          "internalType": "uint256",
          "name": "amount",
          "type": "uint256"
        }
      ],
      "name": "withdrawFee",
      "outputs": [],
      "stateMutability": "nonpayable",
      "type": "function"
    },
    {
      "inputs": [],
      "name": "zsaleFee",
      "outputs": [
        {
          "internalType": "uint256",
          "name": "",
          "type": "uint256"
        }
      ],
      "stateMutability": "view",
      "type": "function"
    },
    {
      "inputs": [],
      "name": "zsaleTokenFee",
      "outputs": [
        {
          "internalType": "uint256",
          "name": "",
          "type": "uint256"
        }
      ],
      "stateMutability": "view",
      "type": "function"
    },
    {
      "inputs": [],
      "name": "zsalesAdmin",
      "outputs": [
        {
          "internalType": "address",
          "name": "",
          "type": "address"
        }
      ],
      "stateMutability": "view",
      "type": "function"
    },
    {
      "inputs": [],
      "name": "zsalesNFTTokenAddress",
      "outputs": [
        {
          "internalType": "address",
          "name": "",
          "type": "address"
        }
      ],
      "stateMutability": "view",
      "type": "function"
    },
    {
      "inputs": [],
      "name": "zsalesTokenAddress",
      "outputs": [
        {
          "internalType": "address",
          "name": "",
          "type": "address"
        }
      ],
      "stateMutability": "view",
      "type": "function"
    },
    {
      "inputs": [],
      "name": "zsalesWalletAddress",
      "outputs": [
        {
          "internalType": "address",
          "name": "",
          "type": "address"
        }
      ],
      "stateMutability": "view",
      "type": "function"
    },
    {
      "stateMutability": "payable",
      "type": "receive"
    }
  ],
  "transactionHash": "0xc9c1093fdefa6b113c01c1be150ad713524b380d53a29981136ca79c9b9bdd55",
  "args": [
    "0x15a9A0189b5d0259879764a18E166869B76aeC93",
    "0x6A75daCCA1fAeFec99F20f88866b4a3F6cD61467",
    "0x54DB465CAdd676690DBbe1fDa03FE532fDa44628",
    "0xA8AE57b84100E4bA7D2c5C44b59Cb8Bbd28a0f4c"
  ],
  "numDeployments": 1,
  "solcInputHash": "90bc6cfc9d445fa893c76731a2c281a5",
  "bytecode": "0x6080346101ec57601f6123af38819003918201601f19168301916001600160401b038311848410176101c0578084926080946040528339810103126101ec5780516001600160a01b038116908190036101ec5761005e602083016101f1565b916100776060610070604084016101f1565b92016101f1565b33156101d65760008054336001600160a01b0319821681178355604051969290916001600160a01b0316907f8be0079c531659141344cd1fd0a4f28419497f9722a3daafe3b4186f6b6457e09080a360c860078190556008556509184e72a000600955600a80546001600160a01b031990811673b7e16f5fa9941b84bacd1601f277b00911aed33917909155600c8054600d8054600560128190556014805487169055805486169099179098556013805485166001600160a01b0397881617905593851690831617905592909116929091169190911790556101068181016001600160401b038111838210176101c05782916122a9833903906000f080156101b457600680546001600160a01b03929092166001600160a01b0319928316179055600b80543392169190911790556040516120a390816102068239f35b6040513d6000823e3d90fd5b634e487b7160e01b600052604160045260246000fd5b631e4fbdf760e01b600052600060045260246000fd5b600080fd5b51906001600160a01b03821682036101ec5756fe608080604052600436101561001d575b50361561001b57600080fd5b005b600090813560e01c90816304e2ee4e14611b31575080630ce12eb914611b1357806316526a6b14611a485780631867ee84146119ca5780631b743d0a146119a35780631ebb4fdc1461193f578063283b36a01461191c5780632bdba7931461092957806335d00df61461089557806339fca7de146108565780633c3d5b67146107d95780633f5aecfd146107b857806344dc44ac14610791578063555d9bf91461077357806357bbb8d4146107345780636727269a14610705578063704b6c02146106c6578063715018a61461066d578063822c70101461062d5780638cf4abc91461060f5780638da5cb5b146105e957806390d49b9d146105aa57806391d682391461058c57806394722d421461054d5780639ef0574814610515578063aa2bd882146104f7578063b4e64fa61461046f578063b5096e59146104d0578063bfa5c9ca146104a9578063c1ffec9c1461046f578063c34052e014610441578063cd3508901461041f578063df0559ce146103f8578063f2fde38b1461035a578063f4ef1c0614610337578063f56dc2d6146102fb578063fcc433df146102c3578063fd60dda71461028b5763fd9be5220361000f5734610288576040600319360112610288576101ec611b56565b90602435916101f9611ee5565b804780851061025d575082809481936001600160a01b038394161561024b575b82908215610241575b6001600160a01b031690f1156102355780f35b604051903d90823e3d90fd5b6108fc9150610222565b506001600160a01b03600a5416610219565b7f74e0caad000000000000000000000000000000000000000000000000000000008452600452602483fd5b80fd5b50346102885760206003193601126102885760406020916001600160a01b036102b2611b56565b168152601083522054604051908152f35b50346102885760206003193601126102885760406020916001600160a01b036102ea611b56565b168152600e83522054604051908152f35b5034610288576020600319360112610288576001600160a01b03604060209282610323611b56565b168152601184522054161515604051908152f35b503461028857602060031936011261028857610351611ee5565b60043560095580f35b5034610288576020600319360112610288576001600160a01b0361037c611b56565b610384611ee5565b1680156103cc576001600160a01b038254826001600160a01b03198216178455167f8be0079c531659141344cd1fd0a4f28419497f9722a3daafe3b4186f6b6457e08380a380f35b6024827f1e4fbdf700000000000000000000000000000000000000000000000000000000815280600452fd5b503461028857806003193601126102885760206001600160a01b03600c5416604051908152f35b503461028857602061043961043336611c37565b90611e7d565b604051908152f35b5034610288576020600319360112610288576040816020925060043581526002835220541515604051908152f35b5034610288576020600319360112610288576001600160a01b03604060209282610497611b56565b16815260118452205416604051908152f35b503461028857806003193601126102885760206001600160a01b0360145416604051908152f35b50346102885780600319360112610288576040602091338152600e83522054604051908152f35b50346102885780600319360112610288576020600754604051908152f35b50346102885760206003193601126102885760406001600160a01b0361053c600435611f46565b835191151582529091166020820152f35b5034610288576020600319360112610288576001600160a01b0361056f611b56565b610577611ee5565b166001600160a01b0319600c541617600c5580f35b50346102885780600319360112610288576020600154604051908152f35b5034610288576020600319360112610288576001600160a01b036105cc611b56565b6105d4611ee5565b166001600160a01b0319600a541617600a5580f35b50346102885780600319360112610288576001600160a01b036020915416604051908152f35b50346102885780600319360112610288576020601254604051908152f35b50346102885760c06003193601126102885736602312156102885761014061065e610659366004611ba5565b611dbb565b61066b6040518092611c4d565bf35b5034610288578060031936011261028857610686611ee5565b806001600160a01b0381546001600160a01b031981168355167f8be0079c531659141344cd1fd0a4f28419497f9722a3daafe3b4186f6b6457e08280a380f35b5034610288576020600319360112610288576001600160a01b036106e8611b56565b6106f0611ee5565b166001600160a01b0319600b541617600b5580f35b50346102885760206003193601126102885760ff60406020926004358152600f84522054166040519015158152f35b5034610288576020600319360112610288576001600160a01b03610756611b56565b61075e611ee5565b166001600160a01b0319600d541617600d5580f35b50346102885780600319360112610288576020600854604051908152f35b503461028857806003193601126102885760206001600160a01b03600b5416604051908152f35b5034610288576107c736611c37565b906107d0611ee5565b60075560085580f35b5034610288576107e836611c37565b906107f282611d3c565b92815b6107ff8484611d6d565b8110156108445760016107ff91338452600e6020526108218160408620611cf6565b90549060031b1c61083b6108358784611d7a565b89611d87565b520190506107f5565b604051806108528782611bfd565b0390f35b5034610288576020600319360112610288576001600160a01b03610878611b56565b610880611ee5565b166001600160a01b0319601354161760135580f35b5034610288576060600319360112610288576108af611b56565b90602435604435916108c083611d3c565b936001600160a01b0316825b6108d68585611d6d565b81101561091b5760016108d691838552600e6020526108f88160408720611cf6565b90549060031b1c61091261090c8884611d7a565b8a611d87565b520190506108cc565b604051806108528882611bfd565b506103206003193601126102885761093f611b56565b90602435916001600160a01b03831680930361191857366083121561191857610969366064611ba5565b90610124356001600160a01b0381168103611914573661016312156119145760405190610997608083611b6c565b81366101c41161189757610144905b6101c482106119045750506101c4359567ffffffffffffffff8711611897573660238801121561189757604051966109df60c089611b6c565b8760c48201913683116118625780600401915b83831061189b575050505036610203121561189757604093845191610a178684611b6c565b823661022411611862576101e4905b610224821061187e57505036610243121561187a57855198610a4960a08b611b6c565b89366102c41161187657610224905b6102c48210611866575050366102e3121561186257865197610a7b60608a611b6c565b88366103241161185e576102c4905b610324821061184e575050610a9e90611dbb565b9485511561181c575b85516117bf575b600954341061179757602460206001600160a01b03600654168a51928380927f162790550000000000000000000000000000000000000000000000000000000082526001600160a01b038a1660048301525afa9081156115b3578b91611768575b5015611740576001600160a01b0384168a5260116020526001600160a01b03888b2054166115d1575b60045460001981146115bd5760010180600455610120870152826114a1575b6e5af43d82803e903d91602b57fd5bf37fffffffffffffffffffffffffffffffffff000000000000000000000000000000601354763d602d80600a3d3981f3363d3d373d3d3d363d7300000062ffffff8260881c16178d5260781b16176020526001600160a01b03603760098cf016988915611479578851936080850185811067ffffffffffffffff821117611465578a523385523060208601526001600160a01b038616858b01526060850152865161145e57604435915b6001600160a01b0360055416928b3b1561145a5794918c9394918b519687947f0caf5f1a0000000000000000000000000000000000000000000000000000000086526004860187905b600482106114275750505060848501526001600160a01b0390610c7f60a486018c611c4d565b166101e4840152898461020485015b6004821061140b575050508d610284840185905b600582106113ef57505050610324830184905b600382106113d3575050506103848201879084905b600282106113b55750506104006103c484015250926104c48201906104048301845b60068110611330575050829394506103e48301520381838b5af180156111e35761131c575b50610d2a600454808952600360205287878a2055611f7d565b50338752600e602052848720600454908054906801000000000000000082101561130857610d6b82610d829260016001600160a01b03979695018155611cf6565b81939154906000199060031b92831b921b19161790565b90551686526011602052838620856001600160a01b031982541617905560045484518681527fa01c8e2b0a81830c2e4e199b4cb98ece9d41443b7f9ef51cbb778f0fa13b019d60203392a3825184602084519401519401519151151597519385517f9d76ea580000000000000000000000000000000000000000000000000000000081526020816004818b5afa9081156112e1576001600160a01b03916020918b916112eb575b5060048951809481937f313ce567000000000000000000000000000000000000000000000000000000008352165afa9081156112e1579060ff918a916112b2575b5016931580159390611295578651927f843f259d0000000000000000000000000000000000000000000000000000000084526020846004818c5afa93841561128b578a94611255575b50610ecd83610ec861271093610ee597611c84565b611c84565b04915b841561124757610edf91611c84565b90611d6d565b90156112215760085484517fbf0a07bd0000000000000000000000000000000000000000000000000000000081526020816004818a5afa9081156111e35788916111ed575b50610f389061271092611c84565b049084517f843f259d0000000000000000000000000000000000000000000000000000000081526020816004818a5afa9081156111e35788916111aa575b50610edf90610f8493611c84565b90601203601281116111965790610f9d610fa392611e6f565b90611d9b565b94611185575b5080517f9d76ea58000000000000000000000000000000000000000000000000000000008152602081600481865afa90811561117b57906001600160a01b0391859161114c575b5016936110778480845160208101907f23b872dd00000000000000000000000000000000000000000000000000000000825233602482015287604482015285606482015260648152611043608482611b6c565b5190828a5af13d15611144573d9061105a82611be1565b9161106786519384611b6c565b82523d87602084013e5b87611fdd565b8051908115159182611129575b50506110fd57839450828452601060205281842055813b156110f95782809260048351809581937ff89fd0340000000000000000000000000000000000000000000000000000000083525af19081156110f057506110df5750f35b816110e991611b6c565b6102885780f35b513d84823e3d90fd5b5050fd5b602484867f5274afe7000000000000000000000000000000000000000000000000000000008252600452fd5b61113c9250602080918301019101611cad565b153880611084565b606090611071565b61116e915060203d602011611174575b6111668183611b6c565b810190611f27565b38610ff0565b503d61115c565b82513d86823e3d90fd5b61118f9194611d6d565b9238610fa9565b602486634e487b7160e01b81526011600452fd5b90506020813d6020116111db575b816111c560209383611b6c565b810103126111d65751610f84610f76565b600080fd5b3d91506111b8565b86513d8a823e3d90fd5b90506020813d602011611219575b8161120860209383611b6c565b810103126111d65751612710610f2a565b3d91506111fb565b610f849061271061124060085461123a86604435611e7d565b90611c84565b0490611d6d565b5050610edf84604435611e7d565b93506020843d602011611283575b8161127060209383611b6c565b810103126111d657925192610ecd610eb3565b3d9150611263565b88513d8c823e3d90fd5b6127106112ab610ee59461123a88604435611e7d565b0491610ed0565b6112d4915060203d6020116112da575b6112cc8183611b6c565b810190611cdd565b38610e6a565b503d6112c2565b87513d8b823e3d90fd5b6113029150823d8411611174576111668183611b6c565b38610e29565b60248a634e487b7160e01b81526041600452fd5b8761132991989298611b6c565b9538610d11565b92919450927ffffffffffffffffffffffffffffffffffffffffffffffffffffffffffffffbfc90820301835284518d815191828452815b83811061139b575050602083601f19601f8584969585809760019a0101520116010196019301910192859294918d94610cec565b819250602081819301015182828701015201908f91611367565b8251151581528e955087945060209283019260019092019101610cca565b825181528e955087945060209283019260019092019101610cb5565b825181528f965088955060209283019260019092019101610ca2565b825181528f965088955060209283019260019092019101610c8e565b8294969998506020919395975081906001600160a01b03600194511681520193019101908f969794929189969492610c59565b8c80fd5b8a91610c10565b60248d634e487b7160e01b81526041600452fd5b60048b7fc2f868f4000000000000000000000000000000000000000000000000000000008152fd5b87517f313ce567000000000000000000000000000000000000000000000000000000008152602081600481875afa9081156115b3579060ff918c91611594575b501660128114611564576114f6818851611e7d565b875260208701611507828251611e7d565b905260808701611518828251611e7d565b905260a08701611529828251611e7d565b905260c0870161153a828251611e7d565b905260e0870161154b828251611e7d565b905261155d6101008801918251611e7d565b9052610b57565b60121015610b575760048a7fe084b466000000000000000000000000000000000000000000000000000000008152fd5b6115ad915060203d6020116112da576112cc8183611b6c565b386114e1565b89513d8d823e3d90fd5b60248b634e487b7160e01b81526011600452fd5b6001600160a01b0384168a5260116020526001600160a01b03888b20541688517f200d2ed2000000000000000000000000000000000000000000000000000000008152602081600481855afa908115611736578c91611717575b5060058110156117035760021490811561166d575b50610b385760048a7f1b787e9f000000000000000000000000000000000000000000000000000000008152fd5b600491506020908a51928380927f200d2ed20000000000000000000000000000000000000000000000000000000082525afa9081156115b3578b916116d4575b5060058110156116c05760031438611640565b60248b634e487b7160e01b81526021600452fd5b6116f6915060203d6020116116fc575b6116ee8183611b6c565b810190611cc5565b386116ad565b503d6116e4565b60248c634e487b7160e01b81526021600452fd5b611730915060203d6020116116fc576116ee8183611b6c565b3861162b565b8a513d8e823e3d90fd5b60048a7fbd5360ba000000000000000000000000000000000000000000000000000000008152fd5b61178a915060203d602011611790575b6117828183611b6c565b810190611cad565b38610b0f565b503d611778565b60048a7f548f4ce2000000000000000000000000000000000000000000000000000000008152fd5b60208601518651908160021b9180830460041490151715611808571115610aae5760048a7fca546cd1000000000000000000000000000000000000000000000000000000008152fd5b60248c634e487b7160e01b81526011600452fd5b600160443511610aa75760048a7f49cc6a46000000000000000000000000000000000000000000000000000000008152fd5b8135815260209182019101610a8a565b8a80fd5b8880fd5b8135815260209182019101610a58565b8980fd5b8780fd5b8135801515810361185e57815260209182019101610a26565b8580fd5b823567ffffffffffffffff811161185e5782013660238201121561185e5760048101356118c781611be1565b916118d56040519384611b6c565b818352366024828401011161145a57918c602083819694602483970183860137830101528152019201916109f2565b81358152602091820191016109a6565b8380fd5b5080fd5b503461028857602060031936011261028857611936611ee5565b60043560125580f35b50346102885760406003193601126102885760243580151580910361191857611966611ee5565b6004358252600f602052604082209060ff7fffffffffffffffffffffffffffffffffffffffffffffffffffffffffffffff00835416911617905580f35b503461028857806003193601126102885760206001600160a01b03600a5416604051908152f35b50346102885760206003193601126102885760043590600154821015611a34577fb10e2d527612073b26eecdfd717e6a320cf44b4afac2b0732d9fcbe2b7fa0cf690910154808252600360209081526040928390205483519283526001600160a01b031690820152f35b80634e487b7160e01b602492526032600452fd5b5034610288576020600319360112610288578060206001600160a01b03611a6d611b56565b611a75611ee5565b16806001600160a01b03196014541617601455806001600160a01b031960155416176015556024604051809481937f4420e4860000000000000000000000000000000000000000000000000000000083523260048401525af18015611b0857611adc575080f35b611afd9060203d602011611b01575b611af58183611b6c565b810190611c75565b5080f35b503d611aeb565b6040513d84823e3d90fd5b50346102885780600319360112610288576020600954604051908152f35b9050346119185781600319360112611918576020906001600160a01b03600d54168152f35b600435906001600160a01b03821682036111d657565b90601f601f19910116810190811067ffffffffffffffff821117611b8f57604052565b634e487b7160e01b600052604160045260246000fd5b919060405192611bb660c085611b6c565b839060c081019283116111d657905b828210611bd157505050565b8135815260209182019101611bc5565b67ffffffffffffffff8111611b8f57601f01601f191660200190565b602060408183019282815284518094520192019060005b818110611c215750505090565b8251845260209384019390920191600101611c14565b60031960409101126111d6576004359060243590565b906000905b600a8210611c5f57505050565b6020806001928551815201930191019091611c52565b908160209103126111d6575190565b81810292918115918404141715611c9757565b634e487b7160e01b600052601160045260246000fd5b908160209103126111d6575180151581036111d65790565b908160209103126111d6575160058110156111d65790565b908160209103126111d6575160ff811681036111d65790565b8054821015611d0e5760005260206000200190600090565b634e487b7160e01b600052603260045260246000fd5b67ffffffffffffffff8111611b8f5760051b60200190565b90611d4682611d24565b611d536040519182611b6c565b828152601f19611d638294611d24565b0190602036910137565b91908201809211611c9757565b91908203918211611c9757565b8051821015611d0e5760209160051b010190565b8115611da5570490565b634e487b7160e01b600052601260045260246000fd5b6040519190610140611dcd8185611b6c565b3684378260005b60048110611e29575060208201908151806103e802906103e8820403611c975760009361012093610fa060a0930460808501525182840152608081015160c084015201805160e0830152516101008201520152565b60006006821015611a3457508060051b80840151906000600a841015611a3457508301526001810180911115611dd457634e487b7160e01b600052601160045260246000fd5b604d8111611c9757600a0a90565b6012821115611ebf577fffffffffffffffffffffffffffffffffffffffffffffffffffffffffffffffee8201918211611c9757610f9d611ebc92611e6f565b90565b906012811015611ee1576012039060128211611c975761123a611ebc92611e6f565b5090565b6001600160a01b03600054163303611ef957565b7f118cdaa7000000000000000000000000000000000000000000000000000000006000523360045260246000fd5b908160209103126111d657516001600160a01b03811681036111d65790565b8060005260036020526040600020548015600014611f7557506000526002602052604060002054151590600090565b600192909150565b80600052600260205260406000205415600014611fd75760015468010000000000000000811015611b8f57611fbe610d6b8260018594016001556001611cf6565b9055600154906000526002602052604060002055600190565b50600090565b9061201c5750805115611ff257805190602001fd5b7f1425ea420000000000000000000000000000000000000000000000000000000060005260046000fd5b81511580612064575b61202d575090565b6001600160a01b03907f9996b315000000000000000000000000000000000000000000000000000000006000521660045260246000fd5b50803b1561202556fea264697066735822122037f703f8dd9a2405e1fca1e81fa1dfd98e6f97828792d60e3147757ecc9a4fe664736f6c634300081c00336080806040523460145760ec908161001a8239f35b600080fdfe6080806040526004361015601257600080fd5b60003560e01c631627905514602657600080fd5b3460b15760207ffffffffffffffffffffffffffffffffffffffffffffffffffffffffffffffffc36011260b1576004359073ffffffffffffffffffffffffffffffffffffffff8216820360b1576020913f7fc5d2460186f7233c927e7db2dcc703c0e500b653ca82273b7bfad8045d85a470811415908160a8575b5015158152f35b905015153860a1565b600080fdfea26469706673582212206889b74eef650dfe6647feb2238118e2d2ba2bf4ddb567897c8e0719df7f000864736f6c634300081c0033",
  "devdoc": {
    "errors": {
      "AddressEmptyCode(address)": [
        {
          "details": "There's no code at `target` (it is not a contract)."
        }
      ],
      "AddressInsufficientBalance(address)": [
        {
          "details": "The ETH balance of the account is not enough to perform the operation."
        }
      ],
      "ERC1167FailedCreateClone()": [
        {
          "details": "A clone instance deployment failed."
        }
      ],
      "FailedInnerCall()": [
        {
          "details": "A call to an address target failed. The target may have reverted."
        }
      ],
      "OwnableInvalidOwner(address)": [
        {
          "details": "The owner is not a valid owner account. (eg. `address(0)`)"
        }
      ],
      "OwnableUnauthorizedAccount(address)": [
        {
          "details": "The caller account is not authorized to perform an operation."
        }
      ],
      "SafeERC20FailedOperation(address)": [
        {
          "details": "An operation with an ERC20 token failed."
        }
      ]
    },
    "kind": "dev",
    "methods": {
      "createNewCampaign(address,address,uint256,uint256[6],address,uint256[4],string[6],bool[2],uint256[5],uint256[3])": {
        "details": "Create A new Campaign. Throws if Campaign for token already exists."
      },
      "owner()": {
        "details": "Returns the address of the current owner."
      },
      "renounceOwnership()": {
        "details": "Leaves the contract without owner. It will not be possible to call `onlyOwner` functions. Can only be called by the current owner. NOTE: Renouncing ownership will leave the contract without an owner, thereby disabling any functionality that is only available to the owner."
      },
      "transferOwnership(address)": {
        "details": "Transfers ownership of the contract to a new account (`newOwner`). Can only be called by the current owner."
      }
    },
    "stateVariables": {
      "zsaleFee": {
        "details": "percent of native currency to take multiplied by 100 i.e 200 for 2%."
      }
    },
    "version": 1
  },
  "userdoc": {
    "kind": "user",
    "methods": {
      "normalizeTokenAmount(uint256,uint256)": {
        "notice": "Normalization function that adjusts token amounts to a common decimal base (18 decimals in this case).  This function either scales up or scales down the token amount based on the number of decimals the token uses, ensuring the final amount will be always displayed with 18 decimals.  Of course this can result in a minor truncation if tokens >18 decimals are being used, this must be considered"
      }
    },
    "version": 1
  },
  "storageLayout": {
    "storage": [
      {
        "astId": 8,
        "contract": "contracts/CampaignList.sol:CampaignList",
        "label": "_owner",
        "offset": 0,
        "slot": "0",
        "type": "t_address"
      },
      {
        "astId": 6483,
        "contract": "contracts/CampaignList.sol:CampaignList",
        "label": "_campaigns",
        "offset": 0,
        "slot": "1",
        "type": "t_struct(UintToAddressMap)2386_storage"
      },
      {
        "astId": 6485,
        "contract": "contracts/CampaignList.sol:CampaignList",
        "label": "_counter",
        "offset": 0,
        "slot": "4",
        "type": "t_uint256"
      },
      {
        "astId": 6488,
        "contract": "contracts/CampaignList.sol:CampaignList",
        "label": "_dexLockerFactory",
        "offset": 0,
        "slot": "5",
        "type": "t_contract(DexLockerFactory)8858"
      },
      {
        "astId": 6491,
        "contract": "contracts/CampaignList.sol:CampaignList",
        "label": "addressConfirmer",
        "offset": 0,
        "slot": "6",
        "type": "t_contract(ConfirmAddress)7694"
      },
      {
        "astId": 6495,
        "contract": "contracts/CampaignList.sol:CampaignList",
        "label": "zsaleFee",
        "offset": 0,
        "slot": "7",
        "type": "t_uint256"
      },
      {
        "astId": 6498,
        "contract": "contracts/CampaignList.sol:CampaignList",
        "label": "zsaleTokenFee",
        "offset": 0,
        "slot": "8",
        "type": "t_uint256"
      },
      {
        "astId": 6501,
        "contract": "contracts/CampaignList.sol:CampaignList",
        "label": "campaignCreationPrice",
        "offset": 0,
        "slot": "9",
        "type": "t_uint256"
      },
      {
        "astId": 6504,
        "contract": "contracts/CampaignList.sol:CampaignList",
        "label": "zsalesWalletAddress",
        "offset": 0,
        "slot": "10",
        "type": "t_address"
      },
      {
        "astId": 6506,
        "contract": "contracts/CampaignList.sol:CampaignList",
        "label": "zsalesAdmin",
        "offset": 0,
        "slot": "11",
        "type": "t_address"
      },
      {
        "astId": 6509,
        "contract": "contracts/CampaignList.sol:CampaignList",
        "label": "zsalesTokenAddress",
        "offset": 0,
        "slot": "12",
        "type": "t_address"
      },
      {
        "astId": 6512,
        "contract": "contracts/CampaignList.sol:CampaignList",
        "label": "zsalesNFTTokenAddress",
        "offset": 0,
        "slot": "13",
        "type": "t_address"
      },
      {
        "astId": 6517,
        "contract": "contracts/CampaignList.sol:CampaignList",
        "label": "ownersCampaign",
        "offset": 0,
        "slot": "14",
        "type": "t_mapping(t_address,t_array(t_uint256)dyn_storage)"
      },
      {
        "astId": 6521,
        "contract": "contracts/CampaignList.sol:CampaignList",
        "label": "_tierStatuses",
        "offset": 0,
        "slot": "15",
        "type": "t_mapping(t_uint256,t_bool)"
      },
      {
        "astId": 6525,
        "contract": "contracts/CampaignList.sol:CampaignList",
        "label": "campaignTokensLocked",
        "offset": 0,
        "slot": "16",
        "type": "t_mapping(t_address,t_uint256)"
      },
      {
        "astId": 6529,
        "contract": "contracts/CampaignList.sol:CampaignList",
        "label": "_tokenCampaigns",
        "offset": 0,
        "slot": "17",
        "type": "t_mapping(t_address,t_address_payable)"
      },
      {
        "astId": 6540,
        "contract": "contracts/CampaignList.sol:CampaignList",
        "label": "maxTiersToCheckForNFT",
        "offset": 0,
        "slot": "18",
        "type": "t_uint256"
      },
      {
        "astId": 6542,
        "contract": "contracts/CampaignList.sol:CampaignList",
        "label": "_campaignImplementationAddress",
        "offset": 0,
        "slot": "19",
        "type": "t_address"
      },
      {
        "astId": 6548,
        "contract": "contracts/CampaignList.sol:CampaignList",
        "label": "turnstileAddress",
        "offset": 0,
        "slot": "20",
        "type": "t_address"
      },
      {
        "astId": 6551,
        "contract": "contracts/CampaignList.sol:CampaignList",
        "label": "turnstile",
        "offset": 0,
        "slot": "21",
        "type": "t_contract(Turnstile)8123"
      }
    ],
    "types": {
      "t_address": {
        "encoding": "inplace",
        "label": "address",
        "numberOfBytes": "20"
      },
      "t_address_payable": {
        "encoding": "inplace",
        "label": "address payable",
        "numberOfBytes": "20"
      },
      "t_array(t_bytes32)dyn_storage": {
        "base": "t_bytes32",
        "encoding": "dynamic_array",
        "label": "bytes32[]",
        "numberOfBytes": "32"
      },
      "t_array(t_uint256)dyn_storage": {
        "base": "t_uint256",
        "encoding": "dynamic_array",
        "label": "uint256[]",
        "numberOfBytes": "32"
      },
      "t_bool": {
        "encoding": "inplace",
        "label": "bool",
        "numberOfBytes": "1"
      },
      "t_bytes32": {
        "encoding": "inplace",
        "label": "bytes32",
        "numberOfBytes": "32"
      },
      "t_contract(ConfirmAddress)7694": {
        "encoding": "inplace",
        "label": "contract ConfirmAddress",
        "numberOfBytes": "20"
      },
      "t_contract(DexLockerFactory)8858": {
        "encoding": "inplace",
        "label": "contract DexLockerFactory",
        "numberOfBytes": "20"
      },
      "t_contract(Turnstile)8123": {
        "encoding": "inplace",
        "label": "contract Turnstile",
        "numberOfBytes": "20"
      },
      "t_mapping(t_address,t_address_payable)": {
        "encoding": "mapping",
        "key": "t_address",
        "label": "mapping(address => address payable)",
        "numberOfBytes": "32",
        "value": "t_address_payable"
      },
      "t_mapping(t_address,t_array(t_uint256)dyn_storage)": {
        "encoding": "mapping",
        "key": "t_address",
        "label": "mapping(address => uint256[])",
        "numberOfBytes": "32",
        "value": "t_array(t_uint256)dyn_storage"
      },
      "t_mapping(t_address,t_uint256)": {
        "encoding": "mapping",
        "key": "t_address",
        "label": "mapping(address => uint256)",
        "numberOfBytes": "32",
        "value": "t_uint256"
      },
      "t_mapping(t_bytes32,t_bytes32)": {
        "encoding": "mapping",
        "key": "t_bytes32",
        "label": "mapping(bytes32 => bytes32)",
        "numberOfBytes": "32",
        "value": "t_bytes32"
      },
      "t_mapping(t_bytes32,t_uint256)": {
        "encoding": "mapping",
        "key": "t_bytes32",
        "label": "mapping(bytes32 => uint256)",
        "numberOfBytes": "32",
        "value": "t_uint256"
      },
      "t_mapping(t_uint256,t_bool)": {
        "encoding": "mapping",
        "key": "t_uint256",
        "label": "mapping(uint256 => bool)",
        "numberOfBytes": "32",
        "value": "t_bool"
      },
      "t_struct(Bytes32Set)3260_storage": {
        "encoding": "inplace",
        "label": "struct EnumerableSet.Bytes32Set",
        "members": [
          {
            "astId": 3259,
            "contract": "contracts/CampaignList.sol:CampaignList",
            "label": "_inner",
            "offset": 0,
            "slot": "0",
            "type": "t_struct(Set)3066_storage"
          }
        ],
        "numberOfBytes": "64"
      },
      "t_struct(Bytes32ToBytes32Map)1962_storage": {
        "encoding": "inplace",
        "label": "struct EnumerableMap.Bytes32ToBytes32Map",
        "members": [
          {
            "astId": 1957,
            "contract": "contracts/CampaignList.sol:CampaignList",
            "label": "_keys",
            "offset": 0,
            "slot": "0",
            "type": "t_struct(Bytes32Set)3260_storage"
          },
          {
            "astId": 1961,
            "contract": "contracts/CampaignList.sol:CampaignList",
            "label": "_values",
            "offset": 0,
            "slot": "2",
            "type": "t_mapping(t_bytes32,t_bytes32)"
          }
        ],
        "numberOfBytes": "96"
      },
      "t_struct(Set)3066_storage": {
        "encoding": "inplace",
        "label": "struct EnumerableSet.Set",
        "members": [
          {
            "astId": 3061,
            "contract": "contracts/CampaignList.sol:CampaignList",
            "label": "_values",
            "offset": 0,
            "slot": "0",
            "type": "t_array(t_bytes32)dyn_storage"
          },
          {
            "astId": 3065,
            "contract": "contracts/CampaignList.sol:CampaignList",
            "label": "_positions",
            "offset": 0,
            "slot": "1",
            "type": "t_mapping(t_bytes32,t_uint256)"
          }
        ],
        "numberOfBytes": "64"
      },
      "t_struct(UintToAddressMap)2386_storage": {
        "encoding": "inplace",
        "label": "struct EnumerableMap.UintToAddressMap",
        "members": [
          {
            "astId": 2385,
            "contract": "contracts/CampaignList.sol:CampaignList",
            "label": "_inner",
            "offset": 0,
            "slot": "0",
            "type": "t_struct(Bytes32ToBytes32Map)1962_storage"
          }
        ],
        "numberOfBytes": "96"
      },
      "t_uint256": {
        "encoding": "inplace",
        "label": "uint256",
        "numberOfBytes": "32"
      }
    }
  }
}