{
  "address": "0x15a9A0189b5d0259879764a18E166869B76aeC93",
  "abi": [
    {
      "inputs": [
        {
          "internalType": "address",
          "name": "dexLockerImplementationAddress",
          "type": "address"
        },
        {
          "internalType": "address",
          "name": "coinVaultImplementationAddress",
          "type": "address"
        }
      ],
      "stateMutability": "nonpayable",
      "type": "constructor"
    },
    {
      "inputs": [],
      "name": "ERC1167FailedCreateClone",
      "type": "error"
    },
    {
      "inputs": [
        {
          "internalType": "address",
          "name": "addr",
          "type": "address"
        }
      ],
      "name": "InvalidDeployerAddress",
      "type": "error"
    },
    {
      "inputs": [
        {
          "internalType": "address",
          "name": "addr",
          "type": "address"
        }
      ],
      "name": "InvalidDexRouterAddress",
      "type": "error"
    },
    {
      "inputs": [
        {
          "internalType": "address",
          "name": "addr",
          "type": "address"
        }
      ],
      "name": "InvalidOwnerAddress",
      "type": "error"
    },
    {
      "inputs": [
        {
          "internalType": "address",
          "name": "addr",
          "type": "address"
        }
      ],
      "name": "InvalidSalesTokenAddress",
      "type": "error"
    },
    {
      "inputs": [
        {
          "internalType": "address",
          "name": "dexRouterAddress",
          "type": "address"
        },
        {
          "internalType": "address",
          "name": "salesTokenAddress",
          "type": "address"
        },
        {
          "internalType": "address",
          "name": "purchaseTokenAddress",
          "type": "address"
        },
        {
          "internalType": "address",
          "name": "deployer",
          "type": "address"
        },
        {
          "internalType": "address",
          "name": "owner",
          "type": "address"
        }
      ],
      "name": "createDexLocker",
      "outputs": [
        {
          "internalType": "address",
          "name": "",
          "type": "address"
        }
      ],
      "stateMutability": "nonpayable",
      "type": "function"
    }
  ],
  "transactionHash": "0x6c8dcd4c2c4c581c187295cf85730351edaa992420b62a183f902b99619995c4",
  "args": [
    "0xCbBAFCE8575ed84ec5219e72E48Eb6a7ad2234c5",
    "0xA1C16951Ad300Be8D2fb2976303d52ABa5Aa1b25"
  ],
  "numDeployments": 1,
  "solcInputHash": "fbbe5845a0614c5aaec8ea6d5916a915",
  "bytecode": "0x608034608657601f61044738819003918201601f19168301916001600160401b03831184841017608b578084926040948552833981010312608657604b602060458360a1565b920160a1565b600080546001600160a01b039384166001600160a01b0319918216179091556001805492909316911617905560405161039290816100b58239f35b600080fd5b634e487b7160e01b600052604160045260246000fd5b51906001600160a01b038216820360865756fe608080604052600436101561001357600080fd5b600090813560e01c63509f318c1461002a57600080fd5b346103585760a07ffffffffffffffffffffffffffffffffffffffffffffffffffffffffffffffffc360112610358576004359073ffffffffffffffffffffffffffffffffffffffff82168092036103545760243573ffffffffffffffffffffffffffffffffffffffff8116809103610350576044359273ffffffffffffffffffffffffffffffffffffffff841680940361034c5760643573ffffffffffffffffffffffffffffffffffffffff8116809103610348576084359173ffffffffffffffffffffffffffffffffffffffff8316809303610344578015610319575082156102ed5780156102c2578115610296576e5af43d82803e903d91602b57fd5bf37fffffffffffffffffffffffffffffffffff0000000000000000000000000000008754763d602d80600a3d3981f3363d3d373d3d3d363d7300000062ffffff8260881c1617895260781b161760205273ffffffffffffffffffffffffffffffffffffffff6037600988f01694851561026e5773ffffffffffffffffffffffffffffffffffffffff6001541693863b1561026a577f1459457a00000000000000000000000000000000000000000000000000000000865260048601526024850152604484015260648301526084820152828160a48183865af1801561025f57610218575b602082604051908152f35b67ffffffffffffffff81116102325760405260209161020d565b6024837f4e487b710000000000000000000000000000000000000000000000000000000081526041600452fd5b6040513d85823e3d90fd5b8780fd5b6004877fc2f868f4000000000000000000000000000000000000000000000000000000008152fd5b602486837f01e4f954000000000000000000000000000000000000000000000000000000008252600452fd5b7fe61a8aed000000000000000000000000000000000000000000000000000000008652600452602485fd5b602486847f26759e2a000000000000000000000000000000000000000000000000000000008252600452fd5b7f699e016b000000000000000000000000000000000000000000000000000000008752600452602486fd5b8680fd5b8580fd5b8480fd5b8380fd5b8280fd5b5080fdfea26469706673582212209ef604d1f91e8c4a0587293574adc6041a88067d913a4adc08f3f8a31be59e6964736f6c634300081c0033",
  "devdoc": {
    "errors": {
      "ERC1167FailedCreateClone()": [
        {
          "details": "A clone instance deployment failed."
        }
      ]
    },
    "kind": "dev",
    "methods": {
      "createDexLocker(address,address,address,address,address)": {
        "params": {
          "deployer": "Address of the deployer",
          "dexRouterAddress": "Address of the DEX router",
          "owner": "Address of the locker owner",
          "purchaseTokenAddress": "Address of the purchase token",
          "salesTokenAddress": "Address of the sales token"
        },
        "returns": {
          "_0": "Address of the newly created DexLocker instance"
        }
      }
    },
    "title": "DexLockerFactory",
    "version": 1
  },
  "userdoc": {
    "kind": "user",
    "methods": {
      "createDexLocker(address,address,address,address,address)": {
        "notice": "Creates a new DexLocker instance"
      }
    },
    "notice": "Factory contract for creating DexLocker instances using Clones - Used to avoid contract size becoming too large",
    "version": 1
  },
  "storageLayout": {
    "storage": [
      {
        "astId": 8766,
        "contract": "contracts/Lockers/DexLockerFactory.sol:DexLockerFactory",
        "label": "_dexLockerImplementationAddress",
        "offset": 0,
        "slot": "0",
        "type": "t_address"
      },
      {
        "astId": 8768,
        "contract": "contracts/Lockers/DexLockerFactory.sol:DexLockerFactory",
        "label": "_coinVaultImplementationAddress",
        "offset": 0,
        "slot": "1",
        "type": "t_address"
      }
    ],
    "types": {
      "t_address": {
        "encoding": "inplace",
        "label": "address",
        "numberOfBytes": "20"
      }
    }
  }
}