{
  "address": "0xCbBAFCE8575ed84ec5219e72E48Eb6a7ad2234c5",
  "abi": [
    {
      "inputs": [],
      "stateMutability": "nonpayable",
      "type": "constructor"
    },
    {
      "inputs": [
        {
          "internalType": "address",
          "name": "target",
          "type": "address"
        }
      ],
      "name": "AddressEmptyCode",
      "type": "error"
    },
    {
      "inputs": [
        {
          "internalType": "address",
          "name": "account",
          "type": "address"
        }
      ],
      "name": "AddressInsufficientBalance",
      "type": "error"
    },
    {
      "inputs": [],
      "name": "DLOnlyDeployer",
      "type": "error"
    },
    {
      "inputs": [],
      "name": "DLReleaseBeforeTime",
      "type": "error"
    },
    {
      "inputs": [],
      "name": "ERC1167FailedCreateClone",
      "type": "error"
    },
    {
      "inputs": [],
      "name": "FailedInnerCall",
      "type": "error"
    },
    {
      "inputs": [
        {
          "internalType": "address",
          "name": "addr",
          "type": "address"
        }
      ],
      "name": "InvalidDeployerAddress",
      "type": "error"
    },
    {
      "inputs": [],
      "name": "InvalidInitialization",
      "type": "error"
    },
    {
      "inputs": [
        {
          "internalType": "address",
          "name": "addr",
          "type": "address"
        }
      ],
      "name": "InvalidOwnerAddress",
      "type": "error"
    },
    {
      "inputs": [
        {
          "internalType": "address",
          "name": "addr",
          "type": "address"
        }
      ],
      "name": "InvalidSalesTokenAddress",
      "type": "error"
    },
    {
      "inputs": [],
      "name": "NotEnoughCoinsForRaisedFundsLock",
      "type": "error"
    },
    {
      "inputs": [],
      "name": "NotInitializing",
      "type": "error"
    },
    {
      "inputs": [
        {
          "internalType": "address",
          "name": "token",
          "type": "address"
        }
      ],
      "name": "SafeERC20FailedOperation",
      "type": "error"
    },
    {
      "inputs": [],
      "name": "TokenCannotBeAddressZero",
      "type": "error"
    },
    {
      "anonymous": false,
      "inputs": [
        {
          "indexed": true,
          "internalType": "address",
          "name": "lockerAddress",
          "type": "address"
        },
        {
          "indexed": true,
          "internalType": "address",
          "name": "token",
          "type": "address"
        },
        {
          "indexed": true,
          "internalType": "address",
          "name": "owner",
          "type": "address"
        },
        {
          "indexed": false,
          "internalType": "uint256",
          "name": "totalTokensLocked",
          "type": "uint256"
        }
      ],
      "name": "ERC20LockCreated",
      "type": "event"
    },
    {
      "anonymous": false,
      "inputs": [
        {
          "indexed": false,
          "internalType": "uint64",
          "name": "version",
          "type": "uint64"
        }
      ],
      "name": "Initialized",
      "type": "event"
    },
    {
      "inputs": [],
      "name": "getOwner",
      "outputs": [
        {
          "internalType": "address",
          "name": "",
          "type": "address"
        }
      ],
      "stateMutability": "view",
      "type": "function"
    },
    {
      "inputs": [
        {
          "internalType": "address",
          "name": "token",
          "type": "address"
        },
        {
          "internalType": "address",
          "name": "purchaseToken",
          "type": "address"
        },
        {
          "internalType": "address",
          "name": "deployer",
          "type": "address"
        },
        {
          "internalType": "address",
          "name": "owner",
          "type": "address"
        },
        {
          "internalType": "address",
          "name": "purchasedCoinVestingVaultImplementationAddress",
          "type": "address"
        }
      ],
      "name": "initialize",
      "outputs": [],
      "stateMutability": "nonpayable",
      "type": "function"
    },
    {
      "inputs": [
        {
          "internalType": "address",
          "name": "tokenAddress",
          "type": "address"
        },
        {
          "internalType": "address",
          "name": "tokenOwner",
          "type": "address"
        },
        {
          "internalType": "uint256",
          "name": "totalTokens",
          "type": "uint256"
        },
        {
          "internalType": "uint256",
          "name": "firstReleasePercent",
          "type": "uint256"
        },
        {
          "internalType": "uint256",
          "name": "firstReleaseDays",
          "type": "uint256"
        },
        {
          "internalType": "uint256",
          "name": "subsequentReleasePercent",
          "type": "uint256"
        },
        {
          "internalType": "uint256",
          "name": "subsequentReleaseDays",
          "type": "uint256"
        }
      ],
      "name": "lockERC20",
      "outputs": [
        {
          "internalType": "address",
          "name": "lockerAddress",
          "type": "address"
        }
      ],
      "stateMutability": "nonpayable",
      "type": "function"
    },
    {
      "inputs": [
        {
          "internalType": "uint256",
          "name": "tokenAmount",
          "type": "uint256"
        },
        {
          "internalType": "uint256",
          "name": "tokenDecimals",
          "type": "uint256"
        }
      ],
      "name": "normalizeTokenAmount",
      "outputs": [
        {
          "internalType": "uint256",
          "name": "",
          "type": "uint256"
        }
      ],
      "stateMutability": "pure",
      "type": "function"
    },
    {
      "inputs": [],
      "name": "raisedFundsPercent",
      "outputs": [
        {
          "internalType": "uint256",
          "name": "",
          "type": "uint256"
        }
      ],
      "stateMutability": "view",
      "type": "function"
    },
    {
      "inputs": [],
      "name": "raisedFundsVaultAddress",
      "outputs": [
        {
          "internalType": "address",
          "name": "",
          "type": "address"
        }
      ],
      "stateMutability": "view",
      "type": "function"
    },
    {
      "inputs": [],
      "name": "releaseCoinVaultETH",
      "outputs": [],
      "stateMutability": "nonpayable",
      "type": "function"
    },
    {
      "inputs": [],
      "name": "releaseTeamTokens",
      "outputs": [],
      "stateMutability": "nonpayable",
      "type": "function"
    },
    {
      "inputs": [
        {
          "internalType": "uint256[2]",
          "name": "raisedFunds",
          "type": "uint256[2]"
        },
        {
          "internalType": "uint256[2]",
          "name": "saleAndDexRates",
          "type": "uint256[2]"
        },
        {
          "internalType": "bool",
          "name": "useTeamTokenVesting",
          "type": "bool"
        },
        {
          "internalType": "uint256[5]",
          "name": "teamTokenVestingDetails",
          "type": "uint256[5]"
        },
        {
          "internalType": "bool",
          "name": "useRaisedFundsVesting",
          "type": "bool"
        },
        {
          "internalType": "uint256[3]",
          "name": "raisedFundVestingDetails",
          "type": "uint256[3]"
        }
      ],
      "name": "setupLock",
      "outputs": [],
      "stateMutability": "nonpayable",
      "type": "function"
    },
    {
      "inputs": [
        {
          "internalType": "uint256",
          "name": "_raisedAmountAfterAllDeductions",
          "type": "uint256"
        }
      ],
      "name": "startRaisedFundsLock",
      "outputs": [],
      "stateMutability": "payable",
      "type": "function"
    },
    {
      "inputs": [],
      "name": "tokenLockerAddress",
      "outputs": [
        {
          "internalType": "address",
          "name": "",
          "type": "address"
        }
      ],
      "stateMutability": "view",
      "type": "function"
    },
    {
      "stateMutability": "payable",
      "type": "receive"
    }
  ],
  "transactionHash": "0xe718a3c818690d766904a2e84008a23ad39469b5a14cac802fef20e7648a7fa6",
  "args": [],
  "numDeployments": 1,
  "solcInputHash": "fbbe5845a0614c5aaec8ea6d5916a915",
  "bytecode": "0x6080806040523460d2577ff0c57e16840df040f15088dc2f81fe391c3923bec73e23a9662efc9c229c6a005460ff8160401c1660c1576002600160401b03196001600160401b03821601605c575b604051611cc890816100d88239f35b6001600160401b0319166001600160401b039081177ff0c57e16840df040f15088dc2f81fe391c3923bec73e23a9662efc9c229c6a005581527fc7f505b2f371ae2175ee4913f4499e1f2633a7b5936321eed1cdaeb6115181d290602090a13880604d565b63f92ee8a960e01b60005260046000fd5b600080fdfe608080604052600436101561001d575b50361561001b57600080fd5b005b600090813560e01c9081631459457a146109365750806314c411c7146108b85780632549ad051461084457806367dba64b14610826578063893d20e814610800578063a30442d71461060c578063be956100146105e5578063c476b485146104b5578063cd3508901461048b578063e7cb4bcb146100c85763f47962090361000f57346100c557806003193601126100c55760206001600160a01b0360045416604051908152f35b80fd5b5060206003193601126100c557600435906001600160a01b036001541633036104635760095460ff81166100fa575080f35b6001600160a01b0360035416158061044b575b610423577fffffffffffffffffffffffffffffffffff00000000000000000000000000000081763d602d80600a3d3981f3363d3d373d3d3d363d7300000062ffffff6e5af43d82803e903d91602b57fd5bf39460901c1617845260701b16176020526001600160a01b036037600983f0169182156103fb5782829373ffffffffffffffffffffffffffffffffffffffff1960055416176005556001600160a01b03835416906127106101c184600654610d72565b0460075492600854906001600160a01b036003541691843b156103f757879460c493869260405198899788967f5df5f96f000000000000000000000000000000000000000000000000000000008852600488015242602488015260448701526064860152608485015260a48401525af19081156103ec5783916103d4575b50506003546001600160a01b03168061029b5750818080926127106102726001600160a01b036005541692600654610d72565b0490828215610292575bf115610286578080f35b604051903d90823e3d90fd5b506108fc61027c565b9180916127106102b96001600160a01b036005541692600654610d72565b046040519060208201927fa9059cbb00000000000000000000000000000000000000000000000000000000845260248301526044820152604481526102ff606482610d15565b519082855af13d156103c8573d9067ffffffffffffffff82116103b4579061034991604051916103396020601f19601f8401160184610d15565b82523d85602084013e5b83610e11565b805190811515918261038c575b505061036157508080f35b7f5274afe7000000000000000000000000000000000000000000000000000000008252600452602490fd5b81925090602091810103126103b057602001518015908115036103b0573880610356565b8280fd5b602484634e487b7160e01b81526041600452fd5b61034990606090610343565b816103de91610d15565b6103e957813861023f565b50fd5b6040513d85823e3d90fd5b8780fd5b6004827fc2f868f4000000000000000000000000000000000000000000000000000000008152fd5b6004827f5025e951000000000000000000000000000000000000000000000000000000008152fd5b5061271061045b84600654610d72565b04341061010d565b807facf291580000000000000000000000000000000000000000000000000000000060049252fd5b50346100c55760406003193601126100c55760206104ad602435600435610d85565b604051908152f35b50346100c55760e06003193601126100c5576104cf610ce4565b6104d7610cff565b604435926001600160a01b0383169283156105bd5760405190610df18083019083821067ffffffffffffffff8311176105a95791610558918493610ea285396001600160a01b0391821681529086166020820152604081018890526064356060820152608435608082015260a43560a082015260c43560c082015260e00190565b039082f09081156102865760206001600160a01b038686867f0b525e8e4a7ed8000838d50b3bd98279ed71ebf1971fa3705241c0ae2c50db19858589169586936040519687521694a4604051908152f35b602485634e487b7160e01b81526041600452fd5b6004827f55052f1d000000000000000000000000000000000000000000000000000000008152fd5b50346100c557806003193601126100c55760206001600160a01b0360055416604051908152f35b50346100c5576101c06003193601126100c557366044116100c557366084116100c55760843580151581036107fc5736610144116107fc5761014435908115158092036103b057366101c4116103b0576001600160a01b036001541633036107d4576106f6575b60ff7fffffffffffffffffffffffffffffffffffffffffffffffffffffffffffffff006009541691168091176009556106a95780f35b805b600360ff821610156106f25760038110156106de57600181611fe060ff9360051b166101640135816006015501166106ab565b602482634e487b7160e01b81526032600452fd5b5080f35b6001600160a01b03600254166001600160a01b038354169060405191610df1908184019184831067ffffffffffffffff8411176107c0579184939161077f93610ea286396001600160a01b039283168252909116602082015260a435604082015260c435606082015260e43560808201526101043560a08201526101243560c082015260e00190565b039083f080156107b5576001600160a01b031673ffffffffffffffffffffffffffffffffffffffff196004541617600455610673565b6040513d84823e3d90fd5b602487634e487b7160e01b81526041600452fd5b6004837facf29158000000000000000000000000000000000000000000000000000000008152fd5b5080fd5b50346100c557806003193601126100c5576001600160a01b036020915416604051908152f35b50346100c557806003193601126100c5576020600654604051908152f35b50346100c557806003193601126100c557806001600160a01b0360055416803b156103e9578180916004604051809481937f9b3e28fd0000000000000000000000000000000000000000000000000000000083525af180156107b5576108a75750f35b816108b191610d15565b6100c55780f35b50346100c557806003193601126100c557806001600160a01b0360045416803b156103e9578180916004604051809581937f86d1a69f0000000000000000000000000000000000000000000000000000000083525af180156109295761091b5780f35b61092491610d15565b388180f35b50604051903d90823e3d90fd5b9050346107fc5760a06003193601126107fc57610951610ce4565b610959610cff565b604435906001600160a01b038216809203610ce057606435916001600160a01b038316809303610cdc57608435926001600160a01b0384168403610cd8577ff0c57e16840df040f15088dc2f81fe391c3923bec73e23a9662efc9c229c6a00549460ff8660401c16159567ffffffffffffffff811680159081610cd0575b6001149081610cc6575b159081610cbd575b50610c955790818760017fffffffffffffffffffffffffffffffffffffffffffffffff00000000000000006001600160a01b039516177ff0c57e16840df040f15088dc2f81fe391c3923bec73e23a9662efc9c229c6a0055610c40575b5016918215610c14578015610be9578115610bbd57906001600160a01b0393929173ffffffffffffffffffffffffffffffffffffffff19600154161760015573ffffffffffffffffffffffffffffffffffffffff1988541617875573ffffffffffffffffffffffffffffffffffffffff1960025416176002551673ffffffffffffffffffffffffffffffffffffffff1960035416176003557fffffffffffffffffffffff0000000000000000000000000000000000000000ff74ffffffffffffffffffffffffffffffffffffffff006009549260081b16911617600955610b2b575080f35b60207fc7f505b2f371ae2175ee4913f4499e1f2633a7b5936321eed1cdaeb6115181d2917fffffffffffffffffffffffffffffffffffffffffffffff00ffffffffffffffff7ff0c57e16840df040f15088dc2f81fe391c3923bec73e23a9662efc9c229c6a0054167ff0c57e16840df040f15088dc2f81fe391c3923bec73e23a9662efc9c229c6a005560018152a180f35b602488837f01e4f954000000000000000000000000000000000000000000000000000000008252600452fd5b7fe61a8aed000000000000000000000000000000000000000000000000000000008852600452602487fd5b602488847f26759e2a000000000000000000000000000000000000000000000000000000008252600452fd5b7fffffffffffffffffffffffffffffffffffffffffffffff0000000000000000001668010000000000000001177ff0c57e16840df040f15088dc2f81fe391c3923bec73e23a9662efc9c229c6a005538610a46565b6004897ff92ee8a9000000000000000000000000000000000000000000000000000000008152fd5b905015386109e9565b303b1591506109e1565b8891506109d7565b8680fd5b8580fd5b8480fd5b600435906001600160a01b0382168203610cfa57565b600080fd5b602435906001600160a01b0382168203610cfa57565b90601f601f19910116810190811067ffffffffffffffff821117610d3857604052565b634e487b7160e01b600052604160045260246000fd5b604d8111610d5c57600a0a90565b634e487b7160e01b600052601160045260246000fd5b81810292918115918404141715610d5c57565b906012811115610de3577fffffffffffffffffffffffffffffffffffffffffffffffffffffffffffffffee8101908111610d5c57610dc290610d4e565b908115610dcd570490565b634e487b7160e01b600052601260045260246000fd5b6012811015610e0d576012039060128211610d5c57610e04610e0a92610d4e565b90610d72565b90565b5090565b90610e505750805115610e2657805190602001fd5b7f1425ea420000000000000000000000000000000000000000000000000000000060005260046000fd5b81511580610e98575b610e61575090565b6001600160a01b03907f9996b315000000000000000000000000000000000000000000000000000000006000521660045260246000fd5b50803b15610e5956fe60806040523461037d57604051601f610df138819003918201601f19168301916001600160401b038311848410176103825780849260e09460405283398101031261037d5761004d816103b7565b610059602083016103b7565b9160408101519060608101519060808101519360c060a0830151920151956001600055606461008884866103cb565b1161036c57600280546001600160a01b031990811633179091556001805482166001600160a01b03938416179055600380549091169290911691909117905560008161034157506000935b826064039260648411610322576100f36100ed84886103e5565b856103d8565b1515918660010180600111610322576101189084156103385760ff60015b16906103cb565b60045562015180810290808204620151801490151715610322578561014061014692426103cb565b926103e5565b90612710820291808304612710149015171561032257620f42406101819261016c610398565b928352046020820152600060408201526103f8565b60005b85811061027b57506101a0575b604051610973908161045e8239f35b60006005548510156102675780600560209252206003850201946000955462015180820291808304620151801490151715610253576101f7926101eb6101fc9695936101f1936103cb565b966103e5565b906103d8565b6103e5565b612710810290808204612710149015171561023f5791620f424061023593610222610398565b93845204602083015260408201526103f8565b3880808080610191565b634e487b7160e01b83526011600452602483fd5b634e487b7160e01b87526011600452602487fd5b634e487b7160e01b81526032600452602490fd5b6000600554156102675760059052600080516020610dd1833981519152546000906001830180841161023f57896102b1916103e5565b906201518082029180830462015180149015171561023f57906102d3916103cb565b906102de87866103e5565b612710810290808204612710149015171561030e579161030891620f424060019594610222610398565b01610184565b634e487b7160e01b82526011600452602482fd5b634e487b7160e01b600052601160045260246000fd5b60ff6000610111565b8260640390606482116103585750819004936100d3565b634e487b7160e01b81526011600452602490fd5b635c974e3d60e11b60005260046000fd5b600080fd5b634e487b7160e01b600052604160045260246000fd5b60405190606082016001600160401b0381118382101761038257604052565b51906001600160a01b038216820361037d57565b9190820180921161032257565b9190820391821161032257565b8181029291811591840414171561032257565b60055468010000000000000000811015610382576001810160055560006005548210156102675760059052600302600080516020610dd1833981519152016002604091835181556020840151600182015501910151151560ff8019835416911617905556fe6080604052600436101561001257600080fd5b60003560e01c806386d1a69f1461051a578063893d20e8146104f3578063894760691461038a5780639613252114610328578063a7e5c3f3146102d9578063df23df50146101ac578063e086e5ec146100ff5763fbccedae1461007457600080fd5b346100fa5760006003193601126100fa57600080600454905b81811061009f57602083604051908152f35b6100a8816106c2565b5054421015806100e2575b6100c0575b60010161008d565b916100da600191826100d1866106c2565b500154906106f7565b9290506100b8565b5060ff60026100f0836106c2565b50015416156100b3565b600080fd5b346100fa5760006003193601126100fa57471561014e5760008080806001600160a01b03600154164790828215610145575bf11561013957005b6040513d6000823e3d90fd5b506108fc610131565b60646040517f08c379a000000000000000000000000000000000000000000000000000000000815260206004820152601e60248201527f546f6b656e4c6f636b65723a206e6f2045746820746f2072656c6561736500006044820152fd5b346100fa5760006003193601126100fa576004546101c98161076f565b906101d7604051928361074c565b808252601f196101e68261076f565b0160005b8181106102ad57505060005b81811061025c578260405180916020820160208352815180915260206040840192019060005b81811061022a575050500390f35b91935091602060606001926040875180518352848101518584015201511515604082015201940191019184939261021c565b806102686001926106c2565b5060ff60026040519261027a8461071a565b805484528581015460208501520154161515604082015261029b8286610787565b526102a68185610787565b50016101f6565b6020906040516102bc8161071a565b6000815260008382015260006040820152828287010152016101ea565b346100fa5760206003193601126100fa576004356005548110156100fa576103026060916106c2565b5080549060ff600260018301549201541690604051928352602083015215156040820152f35b346100fa5760006003193601126100fa57600080600454905b81811061035357602083604051908152f35b60ff6002610360836106c2565b50015416610371575b600101610341565b91610382600191826100d1866106c2565b929050610369565b346100fa5760206003193601126100fa576004356001600160a01b0381168091036100fa57806001600160a01b0360035416146104c9576040516370a0823160e01b8152306004820152602081602481855afa90811561013957600091610497575b501561046d576001600160a01b036001541690604051916370a0823160e01b8352306004840152602083602481855afa91821561013957600092610437575b610435935061079b565b005b91506020833d602011610465575b816104526020938361074c565b810103126100fa5761043592519161042b565b3d9150610445565b7f22bbb43c0000000000000000000000000000000000000000000000000000000060005260046000fd5b90506020813d6020116104c1575b816104b26020938361074c565b810103126100fa5751826103ec565b3d91506104a5565b7fa0f3feea0000000000000000000000000000000000000000000000000000000060005260046000fd5b346100fa5760006003193601126100fa5760206001600160a01b0360015416604051908152f35b346100fa5760006003193601126100fa576002600054146106985760026000556000805b6004548110156105cf57610551816106c2565b5054421015806105b7575b610569575b60010161053e565b9061057a600191826100d1856106c2565b916002610586826106c2565b5001827fffffffffffffffffffffffffffffffffffffffffffffffffffffffffffffff008254161790559050610561565b5060ff60026105c5836106c2565b500154161561055c565b506001600160a01b03600354166040516370a0823160e01b8152306004820152602081602481855afa8015610139578391600091610663575b501061046d5781610625916001600160a01b03600154169061079b565b7f9cf9e3ab58b33f06d81842ea0ad850b6640c6430d6396973312e1715792e7a9160206001600160a01b036003541692604051908152a26001600055005b9150506020813d602011610690575b8161067f6020938361074c565b810103126100fa5782905184610608565b3d9150610672565b7f3ee5aeb50000000000000000000000000000000000000000000000000000000060005260046000fd5b6005548110156106e15760056000526003602060002091020190600090565b634e487b7160e01b600052603260045260246000fd5b9190820180921161070457565b634e487b7160e01b600052601160045260246000fd5b6060810190811067ffffffffffffffff82111761073657604052565b634e487b7160e01b600052604160045260246000fd5b90601f601f19910116810190811067ffffffffffffffff82111761073657604052565b67ffffffffffffffff81116107365760051b60200190565b80518210156106e15760209160051b010190565b6000916001600160a01b038392604051958260208801947fa9059cbb0000000000000000000000000000000000000000000000000000000086521660248801526044870152604486526107ef60648761074c565b1693519082855af13d156108a1573d67ffffffffffffffff81116107365761083a91604051916108296020601f19601f840116018461074c565b82523d6000602084013e5b836108ad565b805190811515918261087d575b50506108505750565b7f5274afe70000000000000000000000000000000000000000000000000000000060005260045260246000fd5b81925090602091810103126100fa57602001518015908115036100fa573880610847565b61083a90606090610834565b906108ec57508051156108c257805190602001fd5b7f1425ea420000000000000000000000000000000000000000000000000000000060005260046000fd5b81511580610934575b6108fd575090565b6001600160a01b03907f9996b315000000000000000000000000000000000000000000000000000000006000521660045260246000fd5b50803b156108f556fea264697066735822122031400338fe232dfae4202f9cb0289c0a56153bd6101627d48e5653273f54bc4464736f6c634300081c0033036b6384b5eca791c62761152d0c79bb0604c104a5fb6f4eb0703f3154bb3db0a2646970667358221220f4a50ce5d37422a288414dfca1e74e773b396d2dc7d5f86f03a7d6e5e956471e64736f6c634300081c0033",
  "devdoc": {
    "errors": {
      "AddressEmptyCode(address)": [
        {
          "details": "There's no code at `target` (it is not a contract)."
        }
      ],
      "AddressInsufficientBalance(address)": [
        {
          "details": "The ETH balance of the account is not enough to perform the operation."
        }
      ],
      "ERC1167FailedCreateClone()": [
        {
          "details": "A clone instance deployment failed."
        }
      ],
      "FailedInnerCall()": [
        {
          "details": "A call to an address target failed. The target may have reverted."
        }
      ],
      "InvalidInitialization()": [
        {
          "details": "The contract is already initialized."
        }
      ],
      "NotInitializing()": [
        {
          "details": "The contract is not initializing."
        }
      ],
      "SafeERC20FailedOperation(address)": [
        {
          "details": "An operation with an ERC20 token failed."
        }
      ]
    },
    "events": {
      "Initialized(uint64)": {
        "details": "Triggered when the contract has been initialized or reinitialized."
      }
    },
    "kind": "dev",
    "methods": {
      "constructor": {
        "custom:oz-upgrades-unsafe-allow": "constructor"
      },
      "getOwner()": {
        "returns": {
          "_0": "the owner of the locked funds"
        }
      }
    },
    "title": "DexLocker",
    "version": 1
  },
  "userdoc": {
    "kind": "user",
    "methods": {
      "constructor": {
        "notice": "Do not leave an implementation contract uninitialized. An uninitialized implementation contract can be taken over by an attacker, which may impact the proxy.  To prevent the implementation contract from being used, you should invoke the _disableInitializers function in the constructor to automatically lock it when it is deployed"
      },
      "normalizeTokenAmount(uint256,uint256)": {
        "notice": "Normalization function that adjusts token amounts to a common decimal base (18 decimals in this case).  This function either scales up or scales down the token amount based on the number of decimals the token uses, ensuring the final amount will be always displayed with 18 decimals.  Of course this can result in a minor truncation if tokens >18 decimals are being used, this must be considered"
      },
      "releaseCoinVaultETH()": {
        "notice": "Transfers ETH back to the owner"
      },
      "releaseTeamTokens()": {
        "notice": "Transfers tokens held by Lock to owner."
      },
      "startRaisedFundsLock(uint256)": {
        "notice": "Raised funds"
      }
    },
    "notice": "Manages vesting for tokens raised in sales campaigns, LP TOkens and Team Vesting tokens",
    "version": 1
  },
  "storageLayout": {
    "storage": [
      {
        "astId": 8269,
        "contract": "contracts/Lockers/DexLocker.sol:DexLocker",
        "label": "_owner",
        "offset": 0,
        "slot": "0",
        "type": "t_address"
      },
      {
        "astId": 8271,
        "contract": "contracts/Lockers/DexLocker.sol:DexLocker",
        "label": "_deployer",
        "offset": 0,
        "slot": "1",
        "type": "t_address"
      },
      {
        "astId": 8280,
        "contract": "contracts/Lockers/DexLocker.sol:DexLocker",
        "label": "_token",
        "offset": 0,
        "slot": "2",
        "type": "t_address"
      },
      {
        "astId": 8282,
        "contract": "contracts/Lockers/DexLocker.sol:DexLocker",
        "label": "_purchaseToken",
        "offset": 0,
        "slot": "3",
        "type": "t_address"
      },
      {
        "astId": 8285,
        "contract": "contracts/Lockers/DexLocker.sol:DexLocker",
        "label": "_teamTokensLocker",
        "offset": 0,
        "slot": "4",
        "type": "t_contract(TokenLocker)9805"
      },
      {
        "astId": 8288,
        "contract": "contracts/Lockers/DexLocker.sol:DexLocker",
        "label": "_purchasedCoinVestingVault",
        "offset": 0,
        "slot": "5",
        "type": "t_contract(PurchasedCoinVestingVault)9282"
      },
      {
        "astId": 8293,
        "contract": "contracts/Lockers/DexLocker.sol:DexLocker",
        "label": "_raisedFundVestingDetails",
        "offset": 0,
        "slot": "6",
        "type": "t_array(t_uint256)3_storage"
      },
      {
        "astId": 8295,
        "contract": "contracts/Lockers/DexLocker.sol:DexLocker",
        "label": "_useRaisedFundsVesting",
        "offset": 0,
        "slot": "9",
        "type": "t_bool"
      },
      {
        "astId": 8297,
        "contract": "contracts/Lockers/DexLocker.sol:DexLocker",
        "label": "_purchasedCoinVestingVaultImplementationAddress",
        "offset": 1,
        "slot": "9",
        "type": "t_address"
      }
    ],
    "types": {
      "t_address": {
        "encoding": "inplace",
        "label": "address",
        "numberOfBytes": "20"
      },
      "t_array(t_uint256)3_storage": {
        "base": "t_uint256",
        "encoding": "inplace",
        "label": "uint256[3]",
        "numberOfBytes": "96"
      },
      "t_bool": {
        "encoding": "inplace",
        "label": "bool",
        "numberOfBytes": "1"
      },
      "t_contract(PurchasedCoinVestingVault)9282": {
        "encoding": "inplace",
        "label": "contract PurchasedCoinVestingVault",
        "numberOfBytes": "20"
      },
      "t_contract(TokenLocker)9805": {
        "encoding": "inplace",
        "label": "contract TokenLocker",
        "numberOfBytes": "20"
      },
      "t_uint256": {
        "encoding": "inplace",
        "label": "uint256",
        "numberOfBytes": "32"
      }
    }
  }
}